:020000040800F2
:1000000098040020853B00085505000857050008A6
:100010005B0500085F05000863050008000000009C
:10002000000000000000000000000000670500085C
:1000300069050008000000006B0500089D3B0008F2
:100040009F3B00089F3B00089F3B00089F3B000828
:100050009F3B00089F3B00089F3B00089F3B000818
:100060009F3B00089F3B00089F3B00089F3B000808
:100070009F3B00089F3B00089F3B00089F3B0008F8
:100080009F3B00089F3B00089F3B0008250A000893
:10009000410A00089F3B00089F3B00089F3B000867
:1000A0009F3B00089F3B00089F3B00089F3B0008C8
:1000B0009F3B00089F3B00089F3B00089F3B0008B8
:1000C0009F3B00089F3B00089F3B00089F3B0008A8
:1000D0009F3B0008F90C00089F3B0008210E000818
:1000E0009F3B00089F3B00089F3B00089F3B000888
:1000F0009F3B00089F3B00089F3B00089F3B000878
:100100009F3B00089F3B00089F3B00089F3B000867
:100110009F3B00089F3B00089F3B000881040008AC
:100120009F3B00089F3B00089F3B00089F3B000847
:100130009F3B00089F3B00089F3B00089F3B000837
:100140009F3B00089F3B00089F3B00089F3B000827
:10015000170C00089F3B00089F3B0008230F000876
:100160009F3B00089F3B00089F3B00089F3B000807
:100170009F3B00089F3B00089F3B00089F3B0008F7
:100180009F3B00089F3B0008DFF80CD003F02AFEDD
:100190000048004709040008980400201CB501210C
:1001A000802002F0A9F90420009001208DF80400BD
:1001B00000208DF8060003208DF805006946C74829
:1001C00003F03EF80421C54803F0B8F8012180206F
:1001D00002F092F90820009001208DF80400002020
:1001E0008DF8060003208DF805006946BB4803F032
:1001F00027F80821B94803F0A1F80121802002F076
:100200007BF91020009001208DF8040000208DF86B
:10021000060003208DF805006946B04803F010F889
:100220001021AE4803F08AF80121802002F064F921
:100230002020009001208DF8040000208DF8060099
:1002400003208DF805006946A44802F0F9FF20213B
:10025000A24803F073F80121202002F04DF901209B
:1002600000908DF8040000208DF8060003208DF822
:10027000050069469A4802F0E3FF0121984803F01F
:100280005DF81CBD2DE9F04186B004460D461646CA
:100290001F464FF0000800208DF80C008DF80D006F
:1002A00008208DF80E0040F2FF18CDF80480200AD7
:1002B0008DF80F008DF81040290A8DF811108DF877
:1002C0001250310A8DF813108DF81460390A8DF828
:1002D00015108DF8167001A9824802F0DDFB06B0FA
:1002E000BDE8F08110B580A003F08EFD00208349A9
:1002F000088048808880C880888242F21070088315
:100300004DF6F00048830020C882B1EE000A08468E
:1003100080ED020AB6EE000A80ED030A9FED780A2E
:1003200080ED040A77A003F06FFD10BD024673480C
:10033000028041800088714B5B88C01A00B26F4B0D
:1003400098801846C08A9B88184400B26B4BD882AC
:100350001846D0ED020AB0F9040000EE100AB8EE1B
:10036000C00A20EE800A184690ED031AB0F9160074
:1003700000EE900AF8EEE00A01EE200A1846B0F905
:100380000400B3F90630C01A00EE900AF8EEE00A55
:100390005A4890ED041A01EE200ABDEEC00A10EE94
:1003A000100A00B2554B988218468088D8801846AB
:1003B000B0F91400B3F9183098420BDC4F48B0F98B
:1003C00014004E4BB3F91A30984203DB4B48B0F996
:1003D000140070474948B0F91400484BB3F918307D
:1003E000984203DD4548B0F91800F2E74348B0F9F8
:1003F0001400424BB3F91A30984203DA3F48B0F97F
:100400001A00E6E70020E4E7B42000F0E7F800F087
:1004100067F900F0ABF800F06DFB00F08EFC3DA03A
:1004200003F0F2FC4FF4E13000F01AFD00F0FDF9AA
:10043000FFF7B4FE0421294802F07EFF0821274877
:1004400002F07AFF1021254802F076FF2021234890
:1004500002F072FF00F062FA642000F021F9FFF769
:1004600041FF4FF47A7000F06FFD08E03048B0F9BA
:10047000001030A003F0C8FC0A2000F011F9F5E7E5
:1004800010B50121314801F092FB012820D1284804
:10049000B0F900104FF4FA70FFF748FF04462C48FB
:1004A000007838B901210E4802F046FF01202849A2
:1004B000087006E001210A4802F040FF00202449AC
:1004C00008702346002211461046FFF7DBFE00BFEE
:1004D00001211E4801F07CFB10BD0000001C024001
:1004E00000140240006400405049445F696E697422
:1004F00020626567696E200A000000004800002045
:10050000CDCCCC3D5049445F696E697420656E6402
:10051000200A00005553415254335F436F6E6669A1
:100520006775726174696F6E20454E440D0A000054
:100530001000002056656C6F636974795F3230304B
:10054000365F4944373A25640D0A00000014004024
:1005500000000020704700BFFEE700BFFEE700BFBD
:10056000FEE700BFFEE77047704770471CB50121EA
:10057000102001F0C1FF4FF40060009001208DF8C1
:10058000040000208DF8060003208DF80500694660
:10059000104802F055FE0121202001F0ADFF4FF47C
:1005A0008040009001208DF8040000208DF80600A6
:1005B00003208DF805006946074802F041FE4FF41C
:1005C0008041054802F0B8FE4FF40061014802F096
:1005D000B3FE1CBD001002400014024010B50446DA
:1005E0006FF0040000F060FDE11704EB5171C1F3FE
:1005F000C701394A11701046007800EB4001C1EB89
:10060000C0104FF6FF7101EAC0003449088010BDE8
:100610000146314A12784A434FF0E0235A610022E2
:100620009A611A46126942F001021A6100BF4FF046
:10063000E022106900F001021AB100F48032002AB1
:10064000F5D04FF0E022126922F001024FF0E023D2
:100650001A6100229A6170470146204A12884A4373
:100660004FF0E0235A6100229A611A46126942F063
:1006700001021A6100BF4FF0E022106900F0010290
:100680001AB100F48032002AF5D04FF0E02212694E
:1006900022F001024FF0E0231A6100229A617047B4
:1006A00070B504464FF4077094FBF0F0C6B24FF4F7
:1006B000077094FBF0F100FB114085B205E04FF4A8
:1006C0000770FFF7C9FF701EC6B2002EF7D115B133
:1006D0002846FFF7C1FF70BD020000200400002083
:1006E0001CB50121022001F007FF0420009000202A
:1006F0008DF8040002208DF8070003208DF8050016
:100700006946154802F09CFD1CBD10B5044614B1A5
:100710000120124908701148007890B104210E4858
:1007200002F0F0FD01280CD10A20FFF7B9FF0020EC
:100730000A4908700421084802F0E4FD012808D1A4
:1007400010BD0421044802F0DDFD10B90120034969
:1007500008700020F4E700000004024006000020BA
:100760001CB56A48006840F48070684908606748B2
:100770001438006840F00100644914390860012110
:10078000080201F0FDFE0121084601F0B5FE4020FF
:10079000009003208DF8040000208DF806008DF8ED
:1007A000050069465A4802F04BFD58482038006859
:1007B00040F480705549203908600846006820F4EC
:1007C000807008604FF48030524908600020524920
:1007D000486088600846406848600846406848604D
:1007E0000846806820F0020088600846806820F48F
:1007F000006088600846806888600846C06A20F407
:100800007000C8620846C06AC8620846006920F4E1
:10081000603008610846006940F4603008610846AD
:10082000806840F0010088601CBD00B589B00121DE
:10083000080201F0A5FE0121084601F05DFE4020FE
:10084000019003208DF8080000208DF80A008DF833
:10085000090001A92E4802F0F3FC4FF080700390CC
:1008600000208DF8100001208DF811000020059067
:100870000690079001208DF8200003A9264801F07A
:100880008EFA0121244801F0D0FA0323012202212B
:10089000214801F00AFBFFF763FF09B000BD0146E4
:1008A0001D48406B20F01F001B4A50631046406BF0
:1008B000084350631046806840F08040906000BF5D
:1008C0001548006800F002000028F9D01248C06CFA
:1008D00080B2704700B50620FFF7E1FF00BD2DE9AB
:1008E000F04107460C460025002608E03846FFF791
:1008F000D6FF05440520FFF7D3FE701CC6B2A64202
:10090000F4DBB5FBF4F080B2BDE8F081443802407E
:1009100000000240042301400020014000B58BB0DC
:100920000121082001F0E8FD0121480601F017FE31
:1009300009220021664802F00EFD092201216448C7
:1009400002F009FD0320029002208DF80C0002A99C
:100950005F4802F075FC14208DF8040002208DF829
:10096000050001208DF806008DF8070001A800F0B1
:100970004EFB13208DF8040000208DF805000120A7
:100980008DF806008DF8070001A800F040FB5148E3
:1009900001F0F0FE08A802F011F800208DF8260002
:1009A0008DF827008DF828008DF829008DF82A0091
:1009B00001208DF82B0000208DF822008DF82300F7
:1009C00006208DF824008DF825000320ADF82000C6
:1009D00008A9404801F0E7FE0A208DF81A0000201F
:1009E0008DF81B0001208DF81C000020ADF81000D0
:1009F000ADF81200ADF81400ADF81600ADF818000F
:100A000001208DF81D0004A801F057FF01220221EA
:100A1000304802F051FA012211462E4802F04CFAF9
:100A20000BB000BD10B501212A4802F0ADFA30B17B
:100A30000121284802F043FB01202749087010BD1E
:100A400000B585B00221234802F09EFAE8B30221E6
:100A5000204802F034FB6A4600211E4802F011F9DA
:100A60009DF8080088BB9DF8080070BB9DF80A003F
:100A700008282AD10098B0F5027F26D19DF81010E1
:100A80009DF80F0041EA002000B2144908809DF84B
:100A90000E109DF80D0041EA002000B210490880B8
:100AA0009DF80C009DF80B1040EA012000B20D49A2
:100AB00008800B4800880C4908800A4800880B49C8
:100AC0000880064800880A49088005B000BD00007B
:100AD000000C024000640040080000200E000020CE
:100AE0000A0000200C00002010000020120000204E
:100AF0001400002000B597B00121864801F0FCFCED
:100B00000121102001F03CFD07221146824802F02D
:100B100022FC8020119002208DF8480000208DF8E2
:100B20004A0003208DF8490000208DF84B0011A9E0
:100B3000794802F085FB794802F016FE7848139058
:100B40000020ADF85000ADF852004FF48060ADF8D1
:100B500054000420ADF856000020ADF8580013A949
:100B60006E4802F04FFE002240F225516B4802F021
:100B700087FF0121694802F0CDFE0122402167482C
:100B800002F075FF44208DF8400001208DF84100EF
:100B90008DF842008DF8430010A800F038FA0021CB
:100BA000604802F0E9FC00BF5E48006800F0010008
:100BB0000028F9D15B4802F003FC4FF0006001907F
:100BC0005648001D029058480390002004901220BF
:100BD0000590002006904FF4806007900020089058
:100BE00009904FF480700A904FF440300B90002031
:100BF0000C900D900E900F9001A94A4802F082FCD3
:100C000001221021474802F044FD0121454802F02D
:100C1000B3FC17B000BD10B54449424802F056FD80
:100C2000002868D042493F4802F01FFD3F493D4837
:100C300002F076FD3C4800783B49497840EA0120C3
:100C4000C0F30A003B49088037484078C010364955
:100C5000897840EA4110C0F30A003649488032489A
:100C6000807880113049C97840EA81002E4909799D
:100C700040EA8120C0F30A002E4988802A48007982
:100C800040102949497940EAC110C0F30A002949B6
:100C9000C8802548407900118008087222484079B0
:100CA000C0F301104872204880791F49C97940EA91
:100CB0000120204948811C48007A1B49497A40EAB2
:100CC00001211C4881811848807A1749C97A40EA75
:100CD00001211848C1811448017B1648017412484B
:100CE000417B144841741048807B0F49C97B40EA1E
:100CF00001201049488210BD10B540F22551074827
:100D000002F0F9FE20B140F22551044802F02AFF1A
:100D100010BD00000200400000040240001001402D
:100D2000A086010088640240640000200088002042
:100D3000000800207E000020704700B587B0012128
:100D4000082001F0D9FB0121880401F008FC0722EA
:100D500008213F4802F0FFFA072209213C4802F02F
:100D6000FAFA4FF44070019002208DF8080000203C
:100D70008DF80A0003208DF8090000208DF80B0083
:100D800001A9334802F05CFA4FF4E13003900020EF
:100D9000ADF81000ADF81200ADF814000C20ADF85D
:100DA00016000020ADF8180003A92A4802F02AFD19
:100DB000012240F22551274802F062FE0121254818
:100DC00002F0A8FD27208DF8000004208DF8010016
:100DD0008DF8020001208DF80300684600F017F935
:100DE00007B000BD10B5044600BF4021194802F00D
:100DF0006CFE0028F9D02146164802F0B6FD10BD61
:100E000070B504460D46E1B2124802F0AEFD00BFD7
:100E10004021104802F059FE0028F9D0204670BD4C
:100E200070B5002540F225510A4802F064FE60B119
:100E3000084802F09EFDC4B2FF2C06D100200649EE
:100E4000086001200549087070BD00BFFCE7000084
:100E5000000C024000480040180000201D00002047
:100E600010B588B004460121402001F045FB012166
:100E7000202001F085FB08220921314802F06BFA9D
:100E800008220E212E4802F066FA4FF484400690A4
:100E900002208DF81C008DF81D0000208DF81E002A
:100EA00001208DF81F0006A9254802F0C9F9029417
:100EB0000020ADF80C00ADF80E00ADF81000ADF854
:100EC00014000C20ADF8120002A91E4802F09AFC92
:100ED00001211C4802F01EFD40211A4802F002FECA
:100EE000012240F22551174802F0CAFD47208DF833
:100EF000040003208DF805008DF8060001208DF810
:100F0000070001A800F083F808B010BD00BF0D492C
:100F1000098801F040010029F9D00A49091D08801B
:100F2000704710B540F22551064802F0E4FD30B19B
:100F3000044802F01EFDC4B22046FFF7E7FF10BDD3
:100F400000180240001401401FB504460121202072
:100F500001F005FB029440F25130ADF8040000208E
:100F6000ADF80600ADF80C0001A9244800F067F9BF
:100F700001221146214800F003FE01211F4800F024
:100F8000E7F937208DF8000001208DF801000020DE
:100F90008DF8020001208DF80300684600F037F854
:100FA0001FBD1FB504460121082001F0D8FA0294A4
:100FB00040F25130ADF804000020ADF80600ADF865
:100FC0000C0001A90E4800F03AF9012211460C4824
:100FD00000F0D6FD01210A4800F0BAF932208DF860
:100FE000000001208DF8010000208DF80200012092
:100FF0008DF80300684600F00AF81FBD0014004099
:10100000000C004032490143324A1160704770B50C
:10101000002100230F22C4781CB32E4C246804F452
:10102000E064C4F5E064C4F30721C1F10404E3B251
:101030000A4144789C40E1B28478144021430C0773
:10104000210E254C05786155047804F01F05012414
:10105000AC4005786D11AD0005F1E025C5F8004103
:1010600009E0047804F01F050124AC401B4D06780C
:10107000761145F8264070BD194A0A400243154BC7
:101080001B1F1A60704739B1124A121D12680243C1
:10109000104B1B1D1A6006E00E4A121D1268824397
:1010A0000C4B1B1D1A607047042808D14FF0E0213B
:1010B000096941F004014FF0E022116107E04FF0AF
:1010C000E021096921F004014FF0E022116170472D
:1010D0000000FA050CED00E000E400E080E100E033
:1010E00080FFFF1F10B50446FE48844208D101214D
:1010F000084601F0ADFA0021012001F0A9FA9DE0B7
:10110000B4F1804F08D10121084601F090FA002186
:10111000012001F08CFA91E0F348844208D10121CA
:10112000022001F084FA0021022001F080FA85E01B
:10113000EE48844208D10121042001F078FA002110
:10114000042001F074FA79E0E948844208D10121D1
:10115000082001F06CFA0021082001F068FA6DE027
:10116000E448844208D10121102001F060FA0021F6
:10117000102001F05CFA61E0DF48844208D10121CF
:10118000202001F054FA0021202001F050FA55E00F
:10119000DA48844208D10121022001F059FA0021E5
:1011A000022001F055FA49E0D548844209D10121D5
:1011B000080401F04DFA00214FF4803001F048FAA4
:1011C0003CE0D048844209D10121480401F040FAB2
:1011D00000214FF4003001F03BFA2FE0CA4884426E
:1011E00009D10121880401F033FA00214FF4802055
:1011F00001F02EFA22E0C548844208D101214020A6
:1012000001F015FA0021402001F011FA16E0C04863
:10121000844208D10121802001F009FA00218020B8
:1012200001F005FA0AE0BB48844207D1012180158C
:1012300001F0FDF90021A01501F0F9F910BD00221F
:101240000288A84B98420ED0AC4B98420BD0B0F11C
:10125000804F08D0A44B984205D0A44B984202D0AE
:10126000A34B984204D14FF68F731A404B881A4310
:10127000A04B984207D0A04B984204D04FF6FF43B2
:101280001A400B891A4302804B68C3620B8803859E
:10129000944B984202D0994B984201D18B7A0386A5
:1012A0000123838270474FF0FF31416000210180AC
:1012B00001814180817270470185828270470A46B0
:1012C000002101884FF68F73194011430180704748
:1012D00041627047C16270470146486A70470146E3
:1012E000088D704721B1028842F00202028004E0BA
:1012F00002884FF6FD731A400280704721B10288C0
:1013000042F00402028004E002884FF6FB731A40A8
:101310000280704721B1028842F08002028004E01E
:1013200002884FF67F731A400280704702884FF69A
:10133000F7731A40028002880A43028070470288CD
:101340004FF6FF431A40028002880A43028070472A
:1013500021B1028842F00102028004E002884FF6C7
:10136000FE731A400280704770B5002400220023EB
:10137000058C4FF6FE7635400584028C8388048BFD
:101380004FF68F752C40B51E2C400D882C43751ED2
:101390002A408D892A434D882A43524DA84202D0C3
:1013A000564DA84213D14FF6F7752A40CD892A43EE
:1013B0004FF6FB752A408D882A434FF6FF652B4078
:1013C0004FF6FF552B400D8A2B434D8A2B438380CC
:1013D00004838D684563028470BD70B500240022CB
:1013E0000023058C4FF6EF7635400584028C838808
:1013F000048B48F6FF752C404FF6FF452C400D88B6
:101400004FF6FF7606EA05252C434FF6DF752A4096
:101410008D8906EA05152A434D8806EA05152A43F3
:10142000304DA84202D0354DA8421DD14FF67F75F0
:101430002A40CD894FF6FF7606EA05152A434FF676
:10144000BF752A408D8806EA05152A434FF6FF35F9
:101450002B404FF2FF752B400D8A06EA85052B4382
:101460004D8A06EA85052B43838004838D68856356
:10147000028470BD70B5002400220023058C4FF655
:10148000FF6635400584028C8388848B4FF68F7508
:101490002C404FF6FC752C400D882C434FF6FF5521
:1014A0002A408D894FF6FF7606EA05252A434D88A6
:1014B00006EA05252A430B4DA84202D00F4DA8424B
:1014C00038D14FF2FF752A40CD894FF6FF7606EAF4
:1014D00005252A434FF6FF352A408D8806EA052563
:1014E0002A4319E0000001400004004000080040C9
:1014F000000C0040001000400014004000040140B7
:1015000000400140004401400048014000180040F4
:10151000001C0040002000404EF6FF752B404DF6A9
:10152000FF752B400D8A06EA05152B434D8A06EA06
:1015300005152B43838084838D68C563028470BD49
:1015400070B5002200230024058C4EF6FF7635404E
:101550000584038C8488828B48F6FF752A404FF6F9
:10156000FF452A400D884FF6FF7606EA05252A43F7
:101570004DF6FF752B408D8906EA05352B434D88C6
:1015800006EA05352B43FE4DA84202D0FD4DA84288
:1015900008D14BF6FF752C400D8A4FF6FF7606EA10
:1015A00085152C43848082838D680564038470BD17
:1015B000002101804180818081608181C18101821F
:1015C0004182704770B50346002000241846183049
:1015D00001258D40ACB21D8CA5431D8409B108299D
:1015E0000AD100EB610005684FF68F763540056043
:1015F0000568154305600FE00D1FC5F34E0528442F
:10160000056848F6FF763540056005684FF6FF76B9
:1016100006EA02263543056070BD41637047816369
:101620007047C1637047016470470A460021018B0F
:101630004FF68F7319401143018370470A4600210A
:10164000018B48F6FF7319404FF6FF7303EA02233C
:101650001943018370470A460021818B4FF68F732F
:1016600019401143818370470A460021818B48F657
:10167000FF7319404FF6FF7303EA02231943818376
:1016800070470A460021018B4FF6F773194011434A
:10169000018370470A460021018B4FF2FF73194006
:1016A0004FF6FF7303EA02231943018370470A468A
:1016B0000021818B4FF6F7731940114381837047E6
:1016C0000A460021818B4FF2FF7319404FF6FF73DA
:1016D00003EA02231943818370470A460021018BE4
:1016E0004FF6FB7319401143018370470A460021EE
:1016F000018B4FF6FF3319404FF6FF7303EA0223C5
:101700001943018370470A460021818B4FF6FB7312
:1017100019401143818370470A460021818B4FF69F
:10172000FF3319404FF6FF7303EA02231943818305
:1017300070470A460021018B4FF67F731940114311
:10174000018370470A460021018BC1F30E014FF659
:10175000FF7303EA02231943018370470A460021FD
:10176000818B4FF67F7319401143818370470A467E
:101770000021818BC1F30E014FF6FF7303EA0223B0
:101780001943818370470A460021018C4FF6FD738F
:1017900019401143018470470A460021018C4FF61D
:1017A000F77319401143018470470A460021018CE8
:1017B0004FF6DF7319404FF6FF7303EA0213194324
:1017C000018470470A460021018C4FF67F7319404F
:1017D0004FF6FF7303EA02131943018470470A4668
:1017E0000021018C4FF6FF5319404FF6FF7303EAB7
:1017F00002231943018470470A460021018C4FF2ED
:10180000FF7319404FF6FF7303EA02231943018463
:1018100070470A460021018C4DF6FF7319404FF6C0
:10182000FF7303EA023319430184704730B5002384
:1018300001248C40A3B2048C9C430484048C02FADF
:1018400001F5ADB22C43048430BD30B5002304242F
:101850008C40A3B2048C9C430484048C02FA01F5EE
:10186000ADB22C43048430BD828B4FF2FF331A405B
:101870008283828B4FF6FF7303EA01231A4382832C
:101880007047F0B50C461546002100220026078C53
:101890004EF6FF7C07EA0C070784818B028C4FF61B
:1018A000FF7707EA043640F6FF4739404FF6FF77E7
:1018B00007EA052739434FF6FF7707EA033739432D
:1018C00045F6FF773A4046F480573A4381830284D5
:1018D000F0BD828B4FF6F3731A408283828B0A43EA
:1018E00082837047F0B50C46154600210022002681
:1018F000078C4FF6FF6C07EA0C070784818B028C7C
:101900004FF6FF7707EA04264FF60C7739404FF67B
:10191000FF7707EA03172F4339434FF2FF573A4047
:1019200046F480773A4381830284F0BD028B4FF204
:10193000FF331A400283028B4FF6FF7303EA012341
:101940001A4302837047F0B50C4615460021002269
:101950000026078C4FF6EF7C07EA0C070784018B03
:10196000028C4FF6FF7707EA041640F6FF4739402E
:101970004FF6FF7707EA033739434FF6FF7703E067
:10198000000001400004014007EA052739434FF6F3
:101990005F773A4046F010073A4301830284F0BD76
:1019A000028B4FF6F3731A400283028B0A430283C1
:1019B0007047F0B50C46154600210022068C4FF604
:1019C000FE773E400684018B028C4FF60C76314048
:1019D0007E1C06EA03162E4331434FF6F57632405D
:1019E00044F00106324301830284F0BD70B5054620
:1019F0000C46208850B92389A28861882846FFF7C1
:101A0000D8FFE1882846FFF7CBFF25E0208804288F
:101A10000AD12389A28861882846FFF794FFE188CC
:101A20002846FFF783FF17E0208808280AD123897A
:101A3000A28861882846FFF755FFE1882846FFF70E
:101A400048FF09E02389A28861882846FFF719FF2B
:101A5000E1882846FFF708FF70BD00210180418022
:101A6000012181800021C180018170472DE9F04171
:101A700005460C4600260127608808B9022600E0CA
:101A80000026A088012801D1022700E00127208834
:101A9000A0B92389A28861882846FFF78AFFE188D8
:101AA0002846FFF77DFF23893A4631462846FFF74F
:101AB0004AFFE1882846FFF739FF13E02389A2880F
:101AC00061882846FFF73FFFE1882846FFF72EFF91
:101AD00023893A4631462846FFF76BFFE1882846BE
:101AE000FFF75EFFBDE8F0810146486B7047014695
:101AF000886B70470146C86B70470146086C704799
:101B00000A884B881A438B881A43CB881A430B895F
:101B10001A434B891A438B891A43A0F84420704713
:101B20000021018041808180C180018141818181CA
:101B3000704731B1B0F8442042F40042A0F844208C
:101B400005E0B0F84420C2F30E02A0F8442070472C
:101B500021B1828842F00402828004E082884FF63C
:101B6000FB731A408280704721B1828842F00102E3
:101B7000828004E082884FF6FE731A4082807047AC
:101B80001AB183890B43838102E083898B4383816C
:101B900070478182704702460020138A0B400BB1C8
:101BA000012000E000207047CA430282704730B530
:101BB0000246002000230024158A05EA01039589C6
:101BC00005EA010413B10CB1012000E0002030BD92
:101BD000CA430282704741EA0203A0F848307047C6
:101BE0001AB183890B43838102E083898B4383810C
:101BF000704721B1828842F00802828004E0828826
:101C00004FF6F7731A408280704701894FF6F872D9
:101C10001140018170470A46002101894FF68F73F8
:101C2000194011430181704730B504460D462946DD
:101C30002046FFF7F0FF208940F00700208130BDEB
:101C40002DE9F04104460D4616461F46602D06D18B
:101C50003B46012231462046FFF775FE05E03B4634
:101C6000012231462046FFF7A4FE29462046FFF711
:101C7000D2FF208940F007002081BDE8F08130B517
:101C80000C4600210189C9B24FF6FF7505EA03250C
:101C9000154325432943018130BD2DE9F041054617
:101CA0000E4617469846002443463A463146284693
:101CB000FFF7E5FF2C894FF6F870044044F0070465
:101CC0004FF68F70044044F070042C81BDE8F08121
:101CD000F0B504460D4616461F463B463246294699
:101CE0002046FFF7CCFF208940F480402081F0BDE2
:101CF00082884FF68F731A40828082880A438280DE
:101D0000704702894FF6F8731A40028102890A432C
:101D10000281704702894FF67F731A40028102895F
:101D20000A4302817047F0B50C4615461E46002155
:101D3000002200230189028B038C4FF6F87739408B
:101D400021434FF6FC473A4040F201173A434FF621
:101D5000DD773B404FF6FF7707EA06172F433B43FB
:101D6000018102830384F0BD21B1828842F08002A8
:101D7000828004E082884FF67F731A408280704729
:101D8000A0F850107047000010B50121080200F0C3
:101D90005FFC00214FF4807000F05AFC10BD30B59C
:101DA0000246002000235068F84C20400D790C6852
:101DB00044EA0524204350609068F54C2040D1E966
:101DC00003542C438D682C434D7944EA4504204349
:101DD0009060D06A20F470000C7D641EE4B223434E
:101DE00040EA0350D06230BD0021016001714171B1
:101DF0008160C16001610121017570470021E54AE0
:101E00001168E54A1140D0E900231A4383681A4358
:101E1000C3681A431143E14AC2F804137047002112
:101E2000016041608160C160704721B1826842F009
:101E30000102826003E0826822F001028260704742
:101E40000A4600214168D64B194011434160704752
:101E50004162826270470A460021416821F01F01F9
:101E600011434160704738B1CA49096841F4000123
:101E7000CA4AC2F8041306E0C649096821F4000101
:101E8000C64AC2F80413704738B1C249096841F420
:101E90008001C24AC2F8041306E0BE49096821F471
:101EA0008001BE4AC2F804137047F0B504460D46DF
:101EB00000200021092D11DDE068A5F10A0606EBDE
:101EC0004607072606FA07F18843A5F10A0606EB3E
:101ED000460603FA06F10843E0600CE0206905EBD2
:101EE0004507072606FA07F1884305EB450603FA7E
:101EF00006F108432061072A0FDA606B561E06EBD5
:101F000086071F2606FA07F18843561E06EB86064B
:101F100005FA06F10843606322E00D2A0FDA206B10
:101F2000D61F06EB86071F2606FA07F18843D61F41
:101F300006EB860605FA06F10843206310E0E06A26
:101F4000A2F10D0606EB86071F2606FA07F1884365
:101F5000A2F10D0606EB860605FA06F10843E062DB
:101F6000F0BD816841F080418160704701460020EA
:101F70008A6802F480020AB1012000E00020704764
:101F800021B1826842F48062826003E0826822F4B8
:101F900080628260704721B1826842F002028260F2
:101FA00003E0826822F002028260704710B50A46A0
:101FB00000210023416821F46041531E41EA43316E
:101FC000416010BD21B1426842F40062426003E00A
:101FD000426822F40062426070470146C86C80B2D9
:101FE00070476C48001D0068704721B1826842F458
:101FF0008072826003E0826822F48072826070479F
:1020000021B1826842F40072826003E0826822F4A7
:1020100000728260704738B15E49096841F400512E
:102020005E4AC2F8041306E05A49096821F40051D7
:102030005A4AC2F804137047F0B50446154600200A
:1020400000220026092911DDE068A1F10A0707EB4B
:10205000470C072707FA0CF29043A1F10A0707EB98
:10206000470703FA07F21043E0600CE0206901EB38
:10207000410C072707FA0CF2904301EB410703FAE2
:1020800007F210432061A06BC0F30156EF1C06F16C
:10209000010CA7EB0C0707EB870C1F2707FA0CF2C4
:1020A0009043EF1C06F1010CA7EB0C0707EB870729
:1020B00001FA07F21043A063F0BD10B50A460021F3
:1020C0000023816B21F44011531E41EA03518163C7
:1020D00010BD08B5002300930090009B0B440093B3
:1020E000009B1A6008BD0A460021816821F4702116
:1020F0001143816070470A460021816821F4401134
:10210000114381607047816841F4800181607047AC
:10211000014600208A6802F480020AB1012000E032
:102120000020704721B1426842F48062426003E0BF
:10213000426822F480624260704721B1426842F4F2
:102140008052426003E0426822F48052426070474D
:1021500008B5024600200090009201F12800009B83
:10216000184400900098006880B208BD10B50B4676
:102170000021D9B2012404FA01F11AB144680C43D8
:10218000446002E044688C43446010BDFFFEFFFCE5
:10219000FDF7FFC004230140E030FCFF00200140B8
:1021A000FFFD3FFF0246002013680B400BB10120EA
:1021B00000E000207047CA430260704770B50246D5
:1021C0000020002300240B12556801268E4005EAEA
:1021D000060415681D4015B10CB1012000E0002077
:1021E00070BD00220A12D34303607047FA480068AA
:1021F00040F00100F84908600020F7490831086004
:10220000F5480068F5490840F3490860F448091D9D
:102210000860081F006820F48020091F0860002063
:10222000ED490C31086070470021EB4A921C117097
:1022300011460870704710B50146002200230020A7
:102240004A11012A02D1E44C236808E0022A03D192
:10225000E14C7034236802E0DF4C7434236801F0F1
:102260001F02012494401C400CB1012000E000201A
:1022700010BD38B5002000900024002500BF31209B
:10228000FFF7D9FF05460098401C00900098B0F574
:10229000A06F01D0002DF2D03120FFF7CCFF08B1A4
:1022A000012400E00024204638BD01460020CA4A2F
:1022B000106820F0F80040EAC10010607047C9497A
:1022C000086070470021C44A7032117011700128F3
:1022D00002D004280AD104E00121BF4A70321170F3
:1022E00005E00521BC4A7032117000E000BF00BF5C
:1022F0007047BD490860704770B5049C41EA82157B
:102300000126C6EB530645EA0645054345EA046542
:10231000B14E361D356070BDB24908667047820106
:1023200042EA0172AC4B84331A607047AD4988664B
:102330007047AC49C864704702460020A64B08337A
:10234000186820F0EC6042EA01031843A24B0833FE
:1023500018607047024600209F4B0833186820F031
:10236000784042EA010318439B4B083318607047DA
:1023700001460020984A0832106820F00300084304
:102380001060704794480830006800F00C007047F7
:1023900001460020904A0832106820F0F0000843FF
:1023A00010607047014600208B4A0832106820F404
:1023B000E05008431060704701460020864A08320A
:1023C000106820F4604040EAC10010607047F0B52A
:1023D0000021002200240225002602237E4F083718
:1023E0003F6807F00C0121B1042905D0082937D135
:1023F00005E07E4F076036E07D4F076033E0764FA3
:102400003F1D3F68C7F38056734F3F1D3F6807F07D
:102410003F036EB1764FB7FBF3F7DFF8BCC10CF1A9
:10242000040CDCF800C0CCF3881C07FB0CF40CE0B7
:102430006E4FB7FBF3F7DFF8A0C10CF1040CDCF82A
:1024400000C0CCF3881C07FB0CF4634F3F1D3F68B2
:10245000C7F301477F1C7D00B4FBF5F7076002E07E
:10246000624F076000BF00BF5B4F08373F6807F04F
:10247000F00109095F4F7A5C0768D7404760564F03
:1024800008373F6807F4E051890A5A4F7A5C476879
:10249000D7408760504F08373F6807F46041490BC9
:1024A000544F7A5C4768D740C760F0BD002100F404
:1024B0004072B2F5407F0AD1474A0832116821F4D0
:1024C000F8114D4A02401143434A08321160424A12
:1024D00070321268C0F30B031A433F4B70331A601B
:1024E000704741494439086070473F4940390860A6
:1024F000704742490860704739B1374A3032126834
:102500000243354B30331A6006E0334A30321268EA
:102510008243314B30331A60704739B12E4A34321E
:10252000126802432C4B34331A6006E02A4A3432D4
:1025300012688243284B34331A60704739B1264AF7
:10254000383212680243244B38331A6006E0224ABC
:10255000383212688243204B38331A60704739B1E1
:102560001D4A4032126802431B4B40331A6006E09A
:10257000194A403212688243174B40331A60704741
:1025800039B1154A443212680243134B44331A607E
:1025900006E0114A4432126882430F4B44331A60FA
:1025A000704739B10C4A1032126802430A4B10339B
:1025B0001A6006E0084A103212688243064B103354
:1025C0001A607047E1B1044A143212680243024BA8
:1025D00014331A6019E0000000380240FFFFF6FED5
:1025E0001030002400004742800E47420024F400CF
:1025F000001BB7001E000020FFFCFF0F5C014742DC
:102600005B4A126882435A4B1A60704739B1584A84
:10261000121D12680243564B1B1D1A6006E0544AF5
:10262000121D12688243524B1B1D1A60704739B14C
:102630004F4A0C32126802434D4B0C331A6006E0CD
:102640004B4A0C3212688243494B0C331A60704774
:1026500039B1474A103212680243454B10331A60B1
:1026600006E0434A103212688243414B10331A602D
:10267000704739B13E4A3C32126802433C4B3C330E
:102680001A6006E03A4A3C3212688243384B3C33C7
:102690001A60704739B1364A403212680243344BEF
:1026A00040331A6006E0324A403212688243304BAF
:1026B00040331A60704739B12D4A443212680243E0
:1026C0002B4B44331A6006E0294A44321268824395
:1026D000274B44331A60704739B1254A4C3212688F
:1026E0000243234B4C331A6006E0214A4C321268F5
:1026F00082431F4B4C331A60704739B11C4A503229
:10270000126802431A4B50331A6006E0184A5032DE
:1027100012688243164B50331A60704739B1144A1D
:10272000D21F12780243124BDB1F1A7006E0104AC8
:10273000D21F127882430E4BDB1F1A7070470C4871
:102740006030006840F0807009496031086070476F
:1027500001460020064A083A12680A400AB10120E0
:1027600000E0002070470249891F08707047000090
:102770001438024010B50446FE48844209D10121B4
:102780004806FFF754FF00214FF00070FFF74FFF9E
:1027900008E001218806FFF74AFF00214FF0806022
:1027A000FFF745FF10BD30B5024600200023146836
:1027B00024F002041460146844F00104146000E082
:1027C0005B1C546804F001041CB94FF6FF74A3426B
:1027D000F6D1546804F001040CB900206CE08C7947
:1027E000012C04D1146844F08004146003E01468E0
:1027F00024F080041460CC79012C04D1146844F0D6
:102800004004146003E0146824F0400414600C7A5F
:10281000012C04D1146844F02004146003E014680F
:1028200024F0200414604C7A012C04D1146844F084
:102830001004146003E0146824F0100414608C7A0F
:10284000012C04D1146844F00804146003E01468F7
:1028500024F008041460CC7A012C04D1146844F0EC
:102860000404146003E0146824F0040414608C78F9
:10287000A407CD7844EA05640D7944EA05444D790E
:1028800044EA05540D886D1E2C43D461146824F06D
:1028900001041460002300E05B1C546804F0010490
:1028A0001CB14FF6FF74A342F6D1546804F0010442
:1028B0000CB1002000E0012030BD10B50021837A6A
:1028C000012202FA03F1AC4A126842F00102AA4B5B
:1028D0001A60A94A1C3212688A43A74B1C331A603B
:1028E000027BCAB9A44A0C3212688A43A24B0C3349
:1028F0001A604288C38842EA03439F4A4032847A7E
:1029000042F834300288838842EA03439A4A4032CC
:10291000847A02EBC4025360027B012A19D1964AE1
:102920000C3212680A43944B0C331A6042880388B5
:1029300042EA0343904A4032847A42F83430C288F3
:10294000838842EA03438C4A4032847A02EBC40211
:102950005360C27A3AB9884A121D12688A43864B7C
:102960001B1D1A6006E0844A121D12680A43824B3E
:102970001B1D1A60028932B97F4A143212688A43D9
:102980007D4B14331A600289012A06D17A4A143227
:1029900012680A43784B14331A60427B012A06D12D
:1029A000754A1C3212680A43734B1C331A60724A10
:1029B000126822F00102704B1A6010BD0021817173
:1029C000C171017241728172C1728170C170032143
:1029D0000171022141710121018070476649096836
:1029E00041F00101644A11601146096843F60E7214
:1029F0009143614A11601146096841EA0021116062
:102A00001146096821F001011160704721B1026887
:102A100042F48032026003E0026822F480320260F5
:102A20007047E1B1026842F0800202604FF4C27266
:102A3000125842F480734FF4C27213504FF4CA72AA
:102A4000125842F480734FF4CA7213504FF4D2728A
:102A5000125842F480734FF4D27213501BE0026894
:102A600022F0800202604FF4C272125822F4807386
:102A70004FF4C27213504FF4CA72125822F480738A
:102A80004FF4CA7213504FF4D272125822F480736A
:102A90004FF4D2721350704710B50246002093686D
:102AA00003F08063B3F1806F00D110E0936803F00E
:102AB0000063B3F1006F01D1012008E0936803F0D7
:102AC0008053B3F1805F01D1022000E0042004288C
:102AD00079D002F5C07303EB00131B6803F0010407
:102AE00002F5C07303EB00131C600B7A7BB94B7AC1
:102AF0000C8843EA445302F5C07404EB00142468C4
:102B0000234302F5C07404EB0014236010E00B7A39
:102B10004C6843EAC4034C7A234302F5C07404EBC7
:102B200000142468234302F5C07404EB00142360EE
:102B30008B7A03F00F038B7202F5C07303EB001363
:102B40005B6823F00F0402F5C07303EB00135C60B5
:102B500002F5C07303EB00135B688C7A234302F524
:102B6000C07404EB001463608B7B1C064B7B44EA4F
:102B7000034403E000640040006600400B7B44EA2D
:102B80000323CC7A234302F5C07404EB0014A36042
:102B90008B7C1C064B7C44EA03440B7C44EA0323F5
:102BA000CC7B234302F5C07404EB0014E36002F510
:102BB000C07303EB00131B6843F0010402F5C073FC
:102BC00003EB00131C6010BD10B50246002321B1B9
:102BD000012907D002290FD109E09068F94C00EAD9
:102BE00004030BE09068F84C00EA040306E09068E8
:102BF000F64C00EA040301E0002300BF00BFF44CE0
:102C0000181BA34216D007DC83B16FF08060184414
:102C100070B1022818D111E0B0F5007F10D0ED4C52
:102C2000204448B1B0F5003F0ED10BE002230DE087
:102C300000230BE0002309E0002307E0012305E067
:102C4000012303E0012301E0002300BF00BFD8B24D
:102C500010BD21B1012907D002290FD109E08268F6
:102C600042F0800282600AE0826842F400428260A0
:102C700005E0826842F40002826000E000BF00BF0D
:102C8000704710B500F5D87303EB01131B6803F010
:102C900004031372137A53B900F5D87303EB0113CD
:102CA0001B6840F2FF7404EA5353136009E000F517
:102CB000D87303EB01131B686FF0604404EAD3037D
:102CC000536000F5D87303EB01131B6803F0020394
:102CD000537200F5D87303EB01135B6803F00F0325
:102CE000937200F5D87303EB01135B681B0AD3746E
:102CF00000F5D87303EB01139B68D37200F5D8730A
:102D000003EB01139B681C0A147300F5D87303EBE3
:102D100001139B681C0C547300F5D87303EB01136B
:102D20009B681B0E937300F5D87303EB0113DB68EC
:102D3000D37300F5D87303EB0113DB681C0A14741A
:102D400000F5D87303EB0113DB681C0C547400F519
:102D5000D87303EB0113DB681B0E937421B9C368AE
:102D600043F02003C36003E0036943F020030361E1
:102D700010BD21B9C26842F02002C26003E00269BE
:102D800042F02002026170470246002019B9D36860
:102D900003F0030006E0012903D1136903F00300E7
:102DA00000E00020704710B502460B4600204FF6A9
:102DB000FF71BBB9146824F0020444F001041460EC
:102DC00000E0491E546804F00304012C01D00029DE
:102DD000F7D1546804F00304012C01D0002032E044
:102DE000012030E0012B13D1146824F00304146097
:102DF00000E0491E546804F003040CB10029F8D126
:102E0000546804F003040CB100201CE001201AE017
:102E1000022B17D1146824F0010444F0020414605A
:102E200000E0491E546804F00304022C01D000297C
:102E3000F7D1546804F00304022C01D0002002E012
:102E4000012000E0002010BD014600200A6822F0A9
:102E5000010242F002020A604A6802F00302022AFA
:102E600000D10120704701464FF6FF7200200B6829
:102E700023F002030B6000E0521E4B6803F00203D4
:102E8000022B01D1002AF7D14B6803F00203022B79
:102E900000D001207047014600208A6902F07000CE
:102EA0007047014600208A69100E704701460020D5
:102EB0008A69C2F3074070471AB143690B43436103
:102EC00002E043698B434361704710B5024600201E
:102ED00001F4700343B19369C1F3130423400BB1B0
:102EE00001202DE000202BE001F0807343B15368F6
:102EF000C1F3130423400BB1012021E000201FE0A7
:102F000001F0006343B19368C1F3130423400BB194
:102F1000012015E0002013E001F0007343B1D368F5
:102F2000C1F3130423400BB1012009E0002007E0A6
:102F30001369C1F3130423400BB1012000E000200A
:102F400010BD0022244B994202D10023836111E07D
:102F5000C1F3130201F000730BB1C2600AE001F08B
:102F600080630BB1026105E001F000630BB1826088
:102F700000E0426070470246002002EA01030BB104
:102F8000012000E00020704770B504460D46002681
:102F900060692840002872D0B5F5807F69D01DDCBB
:102FA000082D42D006DC012D2DD0022D31D0042D6C
:102FB0007FD134E0102D3ED0202D42D0402D78D14D
:102FC00045E00000030000040003000800000310B7
:102FD000000100080001FFF77000F030B5F5004F68
:102FE00061D009DCB5F5007F4AD0B5F5806F4DD0D2
:102FF000B5F5006F5DD150E0B5F5803F2DD0B5F54A
:10300000003F56D12FE0A0685549FFF7B4FF0646B0
:1030100051E0E0680321FFF7AEFF06464BE0E068B1
:103020000821FFF7A8FF064645E0E0681021FFF7FA
:10303000A2FF06463FE020690321FFF79CFF0646FA
:1030400039E020690821FFF796FF064633E0206942
:103050001021FFF790FF06462DE060680821FFF77A
:103060008AFF064627E060681021FFF784FF0646C6
:1030700021E0A0690121FFF77EFF06461BE01BE06F
:10308000A0690221FFF777FF064614E0A06904213A
:10309000FFF771FF06460EE00BE0A0697021FFF715
:1030A0006AFF064607E060680421FFF764FF0646F2
:1030B00001E0002600BF00E00026304670BDB1F5FB
:1030C000007F3AD00FDC202928D006DC01291CD053
:1030D00004291DD0082940D11DE0402921D0B1F597
:1030E000807F3AD126E0B1F5004F31D006DCB1F552
:1030F000806F25D0B1F5006F2FD124E0B1F5803F6E
:1031000012D0B1F5003F28D111E0154A826025E0C8
:103110000822C26022E01022C2601FE00822026181
:103120001CE01022026119E00822426016E0102221
:10313000426013E00422426010E0042242600DE08D
:10314000042242600AE0002282610422426005E01B
:10315000002282610422426000E000BF00BF70478D
:103160000101010010B504468C48844208D10121B8
:103170000846FFF716FA00210120FFF712FA5EE079
:103180008748844208D101210220FFF70AFA002172
:103190000220FFF706FA52E08248844208D101215A
:1031A0000420FFF7FEF900210420FFF7FAF946E0BA
:1031B0007D48844208D101210820FFF7F2F900215F
:1031C0000820FFF7EEF93AE07848844208D101215F
:1031D0001020FFF7E6F900211020FFF7E2F92EE0BA
:1031E0007348844208D101212020FFF7DAF9002139
:1031F0002020FFF7D6F922E06E48844208D1012151
:103200004020FFF7CEF900214020FFF7CAF916E071
:103210006948844208D101218020FFF7C2F90021CA
:103220008020FFF7BEF90AE06448844207D10121FB
:103230008015FFF7B6F90021A015FFF7B2F910BD10
:10324000F0B50A4600210023002400BF3DE001251F
:1032500005FA01F3156805EA03049C4234D10568B8
:103260004F000326BE40B543056015794E00B540BA
:103270000668354305601579012D02D01579022DB8
:1032800016D185684F000326BE40B5438560557949
:103290004E00B540866835438560456801268E40FE
:1032A000B5434560456896798E40B6B23543456072
:1032B000C5684F000326BE40B543C560D5794E00B2
:1032C000B540C6683543C560491C1029BFD3F0BD61
:1032D0004FF6FF7101600021017141718171C1716F
:1032E000704708B54FF480320092009A0A4300926A
:1032F000009AC261C161009AC261C2690092C2694A
:10330000009208BD0246002013690B400BB101205A
:1033100000E0002070470146086980B2704702460D
:10332000002053690B400BB1012000E000207047E2
:103330000146486980B270470183704741837047F6
:103340000AB1018300E041837047416170474269DF
:103350004A4042617047F0B5002300244D07ED0E4E
:1033600002FA05F3CE1000F1200555F826504E075D
:10337000F70E0F26BE40B543CF1000F1200646F8E9
:103380002750CE1000F1200555F8265045EA0304D9
:10339000CE1000F1200545F82640F0BD00000240A7
:1033A0000004024000080240000C024000100240ED
:1033B0000014024000180240001C0240002002409D
:1033C000016821F00101016000210160416081601C
:1033D000C160016121214161DB49884204D13D2165
:1033E000D94A103A91608CE0D7491831884205D10A
:1033F0004FF47461D44A103A916082E0D24930317E
:10340000884205D14FF47411CF4A103A916078E0A8
:10341000CD494831884205D14FF07461CA4A103A0B
:1034200091606EE0C8496031884204D1C749C64AFC
:10343000103AD16065E0C4497831884204D1C4496A
:10344000C14A103AD1605CE0BF499031884204D152
:10345000C049BD4A103AD16053E0BB49A831884207
:1034600005D14FF03D51B84A103AD16049E0BA4910
:10347000884204D13D21B84A083A116041E0B6497A
:103480001831884205D14FF47461B34A083A11608B
:1034900037E0B1493031884205D14FF47411AE4A5A
:1034A000083A11602DE0AC494831884205D14FF00F
:1034B0007461A94A083A116023E0A7496031884243
:1034C00004D1A249A44A121F11601AE0A24978311E
:1034D000884204D19E49A04A121F116011E09E4902
:1034E0009031884204D19B499B4A121F116008E029
:1034F0009949A831884204D14FF03D51964A121F94
:103500001160704710B500220268944B1A40CC68D5
:103510000B6823434C6923438C692343CC692343C1
:103520000C6A23434C6A23438C6A23434C6B23432A
:103530008C6B23431A430260426922F00702D1E9EF
:103540000B3423431A4342610B6943604B68836029
:103550008B68C36010BD0021016041608160C16063
:10356000016141618161C161016241628162C16247
:10357000016341638163704721B1026842F0010237
:10358000026003E0026822F001020260704721B18C
:10359000026842F40042026003E0026822F4004242
:1035A0000260704721B1026842F02002026003E02D
:1035B000026822F0200202607047416070470146B5
:1035C000486880B2704722B1036843F40023036067
:1035D00003E0036823F4002303600161704721B115
:1035E000026842F48022026003E0026822F4802232
:1035F000026070470AB1016100E0C1607047014696
:1036000000200A6802F400220AB1012000E0002034
:103610007047014600200A6802F001020AB1012049
:1036200000E000207047014600204A6902F038009F
:10363000704730B503460A4600200024464DAB4291
:1036400002D24149103901E04349103902F00055D6
:103650000DB14C6800E00C68414D2C4004EA0205B5
:103660000DB1012000E0002030BD02463A4B9A42E5
:1036700002D23548103801E03748103801F00053C5
:103680001BB1374B0B40C36002E0354B0B408360EE
:10369000704710B501F080034BB122B1436943F08C
:1036A0008003436103E0436923F080034361802981
:1036B0000BD02AB1036801F01E042343036004E029
:1036C000036801F01E04A343036010BD70B50246F9
:1036D000002000240025204EB24202D21A4B103B9B
:1036E00001E01D4B103B1F4E0E4036B11E2606EA70
:1036F000D124166806EA040502E0566906F0800542
:1037000001F000560EB15C6800E01C68144E3440B5
:1037100004EA010616B10DB1012000E0002070BDE1
:1037200002460D4B9A4202D20748103801E00A487F
:10373000103801F000531BB1094B0B40C36002E08D
:10374000074B0B4083607047106002403D00002033
:10375000400F002000003D20106402403F801CF01C
:103760007D0F7D0F3C0F3C0F10B50446F748844297
:1037700008D101211020FEF76BFF00211020FEF779
:1037800067FF3EE0F248844209D101214804FEF778
:103790004EFF00214FF40030FEF749FF31E0ED48C5
:1037A000844209D101218804FEF741FF00214FF432
:1037B0008020FEF73CFF24E0E748844209D1012144
:1037C000C804FEF734FF00214FF40020FEF72FFF5E
:1037D00017E0E248844209D101210805FEF727FFDE
:1037E00000214FF48010FEF722FF0AE0DC488442FB
:1037F00007D101212020FEF72BFF00212020FEF71A
:1038000027FF10BD2DE9FF4705460E460024A146BF
:1038100000BFA046B08900B100BF2C8A24F44054F8
:10382000F08804432C82AC8941F20C608443B08858
:1038300031890843718908430443AC81AC8A24F47C
:103840004074B0890443AC826846FEF7C0FDBF48AF
:10385000854202D0C248854202D1DDF80C9001E0D9
:10386000DDF80890A88900F4004040B109EBC900D8
:1038700000EB091031684900B0FBF1F707E009EBF4
:10388000C90000EB091031688900B0FBF1F7642032
:10389000B7FBF0F004012009642101FB1078A8892E
:1038A00000F4004040B1322000EBC800B0FBF1F062
:1038B00000F00700044308E0322000EB0810642108
:1038C000B0FBF1F000F00F0004432C81BDE8FF874E
:1038D0004FF41651016000218180C18001810C21CB
:1038E000418100218181704710B502460020108A75
:1038F00020F470600B884C8823438C882343CC8849
:1039000023431843108210BD002101804180818033
:10391000C180704721B1828942F40052828104E063
:1039200082894DF6FF731A4082817047028B02F440
:103930007F420283028B0A430283704721B182894E
:1039400042F40042828103E08289C2F30E02828146
:10395000704721B1828A42F40062828204E0828A46
:103960004FF2FF731A4082827047C1F308028280CF
:10397000704701468888C0F308007047028A4FF6F6
:10398000F0731A400282028A0A430282704721B110
:10399000828942F00202828104E082894FF6FD733F
:1039A0001A408281704782894FF2FF731A408281E8
:1039B00082890A4382817047028A4FF6DF731A4078
:1039C0000282028A0A430282704721B1028A42F4CB
:1039D0008042028204E0028A4BF6FF731A400282A0
:1039E0007047818941F001018181704721B1828A4C
:1039F00042F00802828204E0828A4FF6F7731A408E
:103A000082827047028BD2B20283028B42EA012289
:103A10000283704721B1828A42F02002828204E050
:103A2000828A4FF6DF731A408282704721B1828A00
:103A300042F01002828204E0828A4FF6EF731A404D
:103A400082827047828A4FF6FB731A408282828A92
:103A50000A438282704721B1828A42F00202828246
:103A600004E0828A4FF6FD731A40828270471AB1D1
:103A7000838A0B43838202E0838A8B43838270476D
:103A8000F0B50346002400260025002040F66A1702
:103A9000B94200D100BF1846C1F3421401F01F061D
:103AA000012707FA06F5012C01D10C3004E0022CA5
:103AB00001D1103000E014301AB107682F430760BD
:103AC00002E00768AF430760F0BD02460020B1F591
:103AD000007F00D100BF13880B400BB1012000E034
:103AE0000020704701F40072B2F5007F00D100BFE2
:103AF000CA430280704770B50246002400230025A7
:103B0000002040F66A16B14200D100BFC1F3421551
:103B100001F01F03012606FA03F3012D02D1968955
:103B2000334006E0022D02D1168A334001E0968A26
:103B300033400C12012606FA04F41688344013B1FF
:103B40000CB1012000E0002070BD00000010014019
:103B50000044004000480040004C0040005000403D
:103B60000014014010B50022002340F66A14A1425F
:103B700000D100BF0A1201249440A3B2DC430480A8
:103B800010BD00000648804706480047FEE7FEE7F4
:103B9000FEE7FEE7FEE7FEE7FEE7FEE7FEE7FEE7FD
:103BA000853C0008890100080CB5002001900090B8
:103BB0007648006840F480307449086000BF73485C
:103BC000006800F4003000900198401C01900098BB
:103BD00018B90198B0F5A06FF1D16C48006800F4F5
:103BE000003010B10120009001E00020009000980A
:103BF000012846D165484030006840F08050634954
:103C0000403108606248006840F4804060490860C4
:103C10005E48083000685D49083108600846006861
:103C200040F4004008600846006840F4A050086076
:103C30005848091F0860081F006840F08070091F7D
:103C4000086000BF5148006800F000700028F9D0FB
:103C500040F20560504908604C480830006820F088
:103C600003004A49083108600846006840F0020035
:103C7000086000BF45480830006800F00C000828C4
:103C8000F8D10CBD10B54548006840F470004349B8
:103C900008603E48006840F001003C490860002090
:103CA0003A4908310860394800683D4908403749B9
:103CB00008603C48091D0860081F006820F4802047
:103CC000091F0860002031490C310860FFF76CFFC4
:103CD0004FF0006031498039086010BD70B5002098
:103CE0000022022300240221284D08352D6805F00A
:103CF0000C0020B1042806D0082834D107E02A4D52
:103D00002A4E356033E02A4D284E35602FE01F4D96
:103D10002D1D2D68C5F380541C4D2D1D2D6805F0FB
:103D20003F0154B1224DB5FBF1F5184E361D3668F2
:103D3000C6F3881605FB06F209E01B4DB5FBF1F54D
:103D4000124E361D3668C6F3881605FB06F20F4D77
:103D50002D1D2D68C5F301456D1C6B00B2FBF3F5FD
:103D6000124E356003E0104D104E356000BF00BFAD
:103D7000064D08352D68C5F303150E4E705D0B4DCD
:103D80002D68C540094E356070BD00000038024006
:103D9000007000400C5A4008003C024088ED00E0F2
:103DA000FFFFF6FE103000240024F4003000002055
:103DB000001BB7003400002030B50B460146002040
:103DC0002022012409E021FA02F59D4205D303FADD
:103DD00002F5491B04FA02F52844151EA2F101025E
:103DE000F1DC30BD064C074D06E0E06840F0010311
:103DF00094E8070098471034AC42F6D3FCF7C8F9B2
:103E00009C3F0008BC3F00080FB4054B10B503A948
:103E1000044A029800F018F810BC5DF814FB00008A
:103E2000010E00084400002002E008C8121F08C16B
:103E3000002AFAD170477047002001E001C1121F2B
:103E4000002AFBD1704700002DE9FF4F89B09B4647
:103E50000446002506E025280BD05A460B999047CA
:103E6000641C6D1C20780028F5D10DB02846BDE8F3
:103E7000F08F0027B8460122474900E0074314F8B5
:103E8000013F203B02FA03F00842F7D120782E28A8
:103E900019D114F8010F47F004072A280ED06FF04B
:103EA0002F022078A0F1300109290CD808EB8801F5
:103EB00002EB410100EB0108641CF2E70A98641C64
:103EC00050F8048B0A9020780028CED0642808D0BF
:103ED000692806D075281ED05A460B9990476D1C4C
:103EE00058E00A994FF00A0901C90A91002802DA3C
:103EF00040422D2102E0390504D52B218DF82010F8
:103F0000012103E0F90704D02021F7E78A4608AE33
:103F10000DE00021FAE70A994FF00A0901C90A9158
:103F2000F7E74946FFF748FF303106F8011D002842
:103F3000F7D1ADEB060000F12009780701D44FF06E
:103F40000108C84502DDA8EB090000E0002080461A
:103F5000002706E008A85A46C05D0B9990476D1CE3
:103F60007F1C5745F6DB04E030205A460B999047FA
:103F70006D1CB8F10001A8F10108F5DC05E016F8A8
:103F8000010B5A460B9990476D1CB9F10001A9F13C
:103F90000109F4DC641C65E709280100BC3F000846
:103FA0000000002048000000283E000804400008EF
:103FB0004800002050040000383E000800000000C7
:103FC00000000100000000000000000000000000F0
:103FD00000000000000000000000000000000102DE
:103FE0000304010203040607080900000095BA0A49
:103FF0000000000000000000010203040607080999
:0440000000000000BC
:040000050800018965
:00000001FF
