:020000040800F2
:10000000482000204D0200089B1C0008D91A000857
:10001000971C00087108000821310008000000004A
:10002000000000000000000000000000690200085D
:1000300069150008000000006D0200080126000894
:1000400071020008710200087102000871020008C4
:10005000710200087102000895160008AB1600082E
:1000600071020008710200087102000871020008A4
:100070007102000871020008710200087102000894
:100080007102000871020008710200087102000884
:10009000750800087102000871020008C116000806
:1000A0007102000871020008710200087102000864
:1000B0007102000871020008710200087102000854
:1000C0007102000871020008710200087102000844
:1000D00071020008912A00087102000871020008EC
:1000E0007102000871020008710200087102000824
:1000F0007102000871020008710200087102000814
:100100007102000871020008710200087102000803
:1001100071020008710200088526000871020008BB
:1001200071020008710200087102000871020008E3
:1001300071020008710200087102000871020008D3
:10014000B509000871020008710200087102000878
:10015000A11200087102000871020008D12C0008E9
:1001600071020008710200087102000871020008A3
:10017000710200087102000871020008000000000E
:100180007102000871020008412A0008492A00088B
:100190007102000871020008710200087102000873
:1001A00000000000000000007102000800F002F8EA
:1001B00000F03CF80AA090E8000C82448344AAF1C5
:1001C0000107DA4501D100F031F8AFF2090EBAE8C3
:1001D0000F0013F0010F18BFFB1A43F0010318477B
:1001E000703C0000903C0000103A24BF78C878C1F1
:1001F000FAD8520724BF30C830C144BF04680C602D
:10020000704700000023002400250026103A28BF74
:1002100078C1FBD8520728BF30C148BF0B60704778
:100220001FB503F0E7FD1FBD10B510BD00F0FDF8D0
:100230001146FFF7F5FF03F0B1FC00F01BF903B422
:10024000FFF7F2FF03BC00F01FF900000C48016843
:1002500041F4700101600B4880470B480047FEE7FE
:10026000FEE7FEE7FEE7FEE7FEE7FEE7FEE7FEE766
:10027000FEE7000005480649044A064B70470000A7
:1002800088ED00E01D260008AD010008481C002094
:1002900048200020481C0020032A40F2308010F043
:1002A000030C00F0158011F8013BBCF1020F624411
:1002B00098BF11F801CB00F8013B38BF11F8013BA2
:1002C000A2F1040298BF00F801CB38BF00F8013B4F
:1002D00011F0030300F02580083AC0F0088051F8BF
:1002E000043B083A51F804CBA0E80810F5E7121DCA
:1002F0005CBF51F8043B40F8043BAFF30080D207E9
:1003000024BF11F8013B11F801CB48BF11F8012BB4
:1003100024BF00F8013B00F801CB48BF00F8012BD7
:10032000704710B5203AC0F00B80B1E81850203A61
:10033000A0E81850B1E81850A0E81850BFF4F5AF85
:100340005FEA027C24BFB1E81850A0E8185044BF0F
:1003500018C918C0BDE810405FEA827C24BF51F87C
:10036000043B40F8043B08BF7047D20728BF31F870
:10037000023B48BF11F8012B28BF20F8023B48BFC1
:1003800000F8012B70474FF000020429C0F01280E2
:1003900010F0030C00F01B80CCF1040CBCF1020F38
:1003A00018BF00F8012BA8BF20F8022BA1EB0C010D
:1003B00000F00DB85FEAC17C24BF00F8012B00F803
:1003C000012B48BF00F8012B70474FF0000200B529
:1003D000134694469646203922BFA0E80C50A0E868
:1003E0000C50B1F12001BFF4F7AF090728BFA0E816
:1003F0000C5048BF0CC05DF804EB890028BF40F8E2
:10040000042B08BF704748BF20F8022B11F0804F23
:1004100018BF00F8012B7047704770477047000005
:1004200000487047E41B002070477546FFF7F8FF4F
:10043000AE4605006946534620F00700854618B0D1
:1004400020B5FFF717FFBDE820404FF000064FF042
:1004500000074FF000084FF0000B21F00701AC46F9
:10046000ACE8C009ACE8C009ACE8C009ACE8C00918
:100470008D46704710B50446AFF300802046BDE8B6
:100480001040FFF7DCBE000001491820ABBEFEE7BC
:100490002600020010B5044603F06EFA206003F057
:1004A00073FA606010BD000010B50248FFF7F2FF5C
:1004B00010BD0000FC00002030B500220024C578EB
:1004C0008B1F9D4200D030BD002306E0C55C154463
:1004D000EAB2A518ECB25D1CEBB28D1E9D42F5DCB4
:1004E000431813F8023C934204D1431813F8013C1B
:1004F000A34200D0E7E70378AA2B05D14378612B0C
:1005000003D04378FF2B00D0DDE78378012B2AD17D
:10051000B0F90A3000EE103AB8EEC00ADFED2E0A4C
:1005200020EE200A2D4B83ED000AB0F90C3000EECE
:10053000103AB8EEC00ADFED280A20EE200A274B59
:1005400083ED010AB0F90E3000EE103AB8EEC00AA1
:10055000DFED210A20EE200A204B83ED020A037C06
:100560001F4D2B7035E08378032B32D1B0F9043066
:1005700000EE103AF8EEC00A9FED1A1A80EE810ADA
:10058000DFED190A80EE201A184B83ED021AB0F93C
:10059000063000EE103AF8EEC00A9FED121A80EE17
:1005A000810ADFED110A80EE201A104B83ED011A4B
:1005B000B0F9083000EE103AF8EEC00A9FED091AC3
:1005C00080EE810ADFED080A80EE201A074B83EDEA
:1005D000001A00BF77E70000B3EF8A3AB01400209A
:1005E000F00000200000C84233336542BC140020F4
:1005F00010B504463F48007838B9AA2C05D101202F
:100600003C4908703C48047072E03A480078012880
:1006100009D1612C01D0FF2C05D102203549087089
:100620003548447064E033480078022805D103203F
:1006300030490870304884705AE02E48007803280A
:100640000CD1FA2C0ADA04202A4908702A48C4700E
:100650002A48047000202A49087049E0254800789B
:10066000042819D125480078002815DD2348007892
:10067000401E224908702248007821490978491C07
:100680001F4A1170001D1C490C541C48007858BBAF
:100690000520184908702BE01648007805280DD170
:1006A0000620144908701648007815490978491C35
:1006B000134A1170001D10490C5419E00D480078C0
:1006C000062812D100200B4908700D480078001D43
:1006D00009490C540A480078401D0A490870084628
:1006E00001780548FFF7E8FE02E0002001490870A4
:1006F00010BD0000F4000020E41A0020F2000020E9
:10070000F3000020F100002010B588B0044601215C
:10071000102001F031FC0121880701F03DFC082286
:100720000721254801F08CF908221146224801F0E2
:1007300087F94FF4C070069002208DF81C008DF8E8
:100740001D0000208DF81E0001208DF81F0006A955
:10075000194801F02DF902940020ADF80C00ADF815
:100760000E00ADF81000ADF814000C20ADF812002A
:1007700002A9124802F020FC0121104802F032FBCD
:1007800040210E4802F016FB012240F225510B4891
:1007900002F0EDFB52208DF8040003208DF80500D7
:1007A00000208DF8060001208DF8070001A801F057
:1007B00075FA08B010BD000000100240007800403B
:1007C00010B596215A2002F027FDFA2002F040FFD2
:1007D00002F01AFD10BD000038B54FF4407001F072
:1007E00099FA4FF47A7002F0FDFE03F059F903F024
:1007F000F1F903F025F803F02BF95A214FF4AF700B
:1008000002F0A6FC002005231A460121009000F00A
:1008100049F802F00FFD03F049FA00F0BDFF002493
:1008200008E0204603F00AFA40F2C52002F038FF43
:10083000601CC4B2042CF4DB03F010FAFFF7C0FF15
:100840005A2147F2305002F083FC01F0FFFC0748C8
:1008500001F09AF90548FFF757FFFFF725FE01F071
:100860003DF901F021F801F061F838BD20A1070041
:1008700000BFFEE710B50221084800F0E3F958B1C7
:100880000221064800F006F9054A0021034800F05D
:10089000FCFA034800F004FC10BD000000640040B6
:1008A000680300202DE9F0418AB004460D46164643
:1008B0001F46DDF840800121082001F05DFB012189
:1008C000480601F069FB0121480601F075FB002193
:1008D0004FF0007001F070FB0320089002208DF8AB
:1008E000240000208DF8260003208DF8250001202B
:1008F0008DF8270008A92D4801F05AF80922002197
:100900002A4801F09DF809220121284801F098F8B1
:1009100000208DF81A0001208DF81B0000208DF8B2
:100920001C008DF81D008DF81E008DF81F008DF83D
:1009300016808DF817408DF818608DF81950ADF8B5
:10094000147005A91A4800F016FA00208DF80E0060
:100950008DF80F0001208DF810000020ADF8040084
:10096000ADF80600ADF80800ADF80A00ADF80C00CF
:1009700001208DF8110001A800F0E0F80122022109
:100980000B4800F0EFF914208DF8000004208DF8DA
:10099000010000208DF8020001208DF80300684658
:1009A00001F07CF900200AB0BDE8F081000C0240A3
:1009B0000064004010B50221084800F043F958B126
:1009C0000221064800F066F8054A0021034800F0BD
:1009D0005CFA034800F064FB10BD000000680040B2
:1009E0007C030020F0B585B004460D4616461F4630
:1009F0004FF40070009000208DF808008DF8090079
:100A000008208DF80A00200A8DF80B00E1B28DF85D
:100A10000C10290A8DF80D10E9B28DF80E10310A6C
:100A20008DF80F10F1B28DF81010390A8DF81110F1
:100A3000F9B28DF812106946024800F09EFA05B02E
:100A4000F0BD0000006400402DE9F04104460D4671
:100A500016461F4640F2FF100C490860002008723D
:100A6000487208208872200AC87208460473290A4E
:100A700041738573310AC1730674390A41748774EE
:100A80000146034800F079FABDE8F08154030020E4
:100A900000640040B1F5007F3AD00FDC202928D057
:100AA00006DC01291CD004291DD0082940D11DE0F5
:100AB000402921D0B1F5807F3AD126E0B1F5004F31
:100AC00031D006DCB1F5806F25D0B1F5006F2FD1A4
:100AD00024E0B1F5803F12D0B1F5003F28D111E0FC
:100AE000154A826025E00822C26022E01022C2601E
:100AF0001FE0082202611CE01022026119E00822B6
:100B0000426016E01022426013E00422426010E0CE
:100B1000042242600DE0042242600AE00022826169
:100B20000422426005E0002282610422426000E06B
:100B300000BF00BF704700000101010010B5002197
:100B4000837A012202FA03F13D4A126842F001025F
:100B50003B4B1A603A4A1C3212688A43384B1C33AA
:100B60001A60027BCAB9364A0C3212688A43344B87
:100B70000C331A604288C38842EA0343304A403249
:100B8000847A42F834300288838842EA03432C4A4C
:100B90004032847A02EBC4025360027B012A19D1ED
:100BA000274A0C3212680A43254B0C331A604288DC
:100BB000038842EA0343224A4032847A42F83430BE
:100BC000C288838842EA03431D4A4032847A02EB9A
:100BD000C4025360C27A3AB9194A121D12688A4394
:100BE000174B1B1D1A6006E0154A121D12680A43B6
:100BF000134B1B1D1A60028932B9114A1432126854
:100C00008A430F4B14331A600289012A06D10C4A19
:100C1000143212680A430A4B14331A60427B012AC9
:100C200006D1074A1C3212680A43054B1C331A606E
:100C3000034A126822F00102014B1A6010BD000045
:100C40000066004070B504460D46002660692840E5
:100C5000002871D0B5F5807F5CD010DC082D35D030
:100C600006DC012D20D0022D24D0042D72D127E0E6
:100C7000102D31D0202D35D0402D6BD138E0B5F579
:100C8000004F60D009DCB5F5007F49D0B5F5806F25
:100C90004CD0B5F5006F5DD14FE0B5F5803F2DD05C
:100CA000B5F5003F56D12FE0A0682D4900F0EEFACF
:100CB000064651E0E068032100F0E8FA06464BE002
:100CC000E068082100F0E2FA064645E0E0681021FD
:100CD00000F0DCFA06463FE02069032100F0D6FA76
:100CE000064639E02069082100F0D0FA064633E0D4
:100CF0002069102100F0CAFA06462DE0606808213C
:100D000000F0C4FA064627E06068102100F0BEFA41
:100D1000064621E0A069012100F0B8FA06461BE072
:100D2000A069022100F0B2FA064615E0A06904218C
:100D300000F0ACFA06460FE00FE0A069702100F069
:100D4000A5FA064608E06068042100F09FFA06460E
:100D500002E0FFE7002600BF00E00026304670BD3D
:100D6000010101001AB143690B43436102E0436989
:100D70008B434361704730B502460020002314685E
:100D800024F002041460146844F00104146000E0CC
:100D90005B1C546804F001041CB94FF6FF74A342B5
:100DA000F6D1546804F001040CB900206CE08C7991
:100DB000012C04D1146844F08004146003E014682A
:100DC00024F080041460CC79012C04D1146844F020
:100DD0004004146003E0146824F0400414600C7AAA
:100DE000012C04D1146844F02004146003E014685A
:100DF00024F0200414604C7A012C04D1146844F0CF
:100E00001004146003E0146824F0100414608C7A59
:100E1000012C04D1146844F00804146003E0146841
:100E200024F008041460CC7A012C04D1146844F036
:100E30000404146003E0146824F0040414608C7843
:100E4000A407CD7844EA05640D7944EA05444D7958
:100E500044EA05540D886D1E2C43D461146824F0B7
:100E600001041460002300E05B1C546804F00104DA
:100E70001CB14FF6FF74A342F6D1546804F001048C
:100E80000CB1002000E0012030BD10B500F5D87392
:100E900003EB01131B6803F004031372137A53B9B5
:100EA00000F5D87303EB01131B6840F2FF7404EAEA
:100EB0005353136009E000F5D87303EB01131B686B
:100EC0006FF0604404EAD303536000F5D87303EB7A
:100ED00001131B6803F00203537200F5D87303EB90
:100EE00001135B6803F00F03937200F5D87303EBF3
:100EF00001135B681B0AD37400F5D87303EB01136D
:100F00009B68D37200F5D87303EB01139B681C0A2E
:100F1000147300F5D87303EB01139B681C0C547316
:100F200000F5D87303EB01139B681B0E937300F558
:100F3000D87303EB0113DB68D37300F5D87303EBAD
:100F40000113DB681C0A147400F5D87303EB01135A
:100F5000DB681C0C547400F5D87303EB0113DB68D9
:100F60001B0E937421B9C36843F02003C36003E0F0
:100F7000036943F02003036110BD10B50246002051
:100F8000936803F08063B3F1806F00D110E0936841
:100F900003F00063B3F1006F01D1012008E0936812
:100FA00003F08053B3F1805F01D1022000E0042000
:100FB000042874D002F5C07303EB00131B6803F020
:100FC000010402F5C07303EB00131C600B7A7BB9BC
:100FD0004B7A0C8843EA445302F5C07404EB0014C6
:100FE0002468234302F5C07404EB0014236010E06E
:100FF0000B7A4C6843EAC4034C7A234302F5C0746D
:1010000004EB00142468234302F5C07404EB0014BD
:1010100023608B7A03F00F038B7202F5C07303EB2E
:1010200000135B6823F00F0402F5C07303EB001399
:101030005C6002F5C07303EB00135B688C7A23439A
:1010400002F5C07404EB001463608B7B1C064B7BC1
:1010500044EA03440B7B44EA0323CC7A234302F59E
:10106000C07404EB0014A3608B7C1C064B7C44EA28
:1010700003440B7C44EA0323CC7B234302F5C07476
:1010800004EB0014E36002F5C07303EB00131B686C
:1010900043F0010402F5C07303EB00131C6010BDA4
:1010A00040F205230168CA1A994214D00ADCA1F261
:1010B000012100297ED001297DD002297CD003297D
:1010C0007BD180E0012A22D0022A3CD0032A56D0CC
:1010D000FD2AF5D1B6E06649098809B2644A118152
:1010E000017BC27A41EA0221614A1180827B417B05
:1010F00042EA012109B25E4A9180027CC17B42EA48
:10110000012109B25A4A5180417C9171ADE059499F
:10111000098809B2574A1181017BC27A41EA02214A
:10112000544A1180827B417B42EA012109B2514A33
:101130009180027CC17B42EA012109B24D4A518073
:10114000417C917191E04C49098809B24A4A118168
:10115000017BC27A41EA0221474A1180827B417BAE
:1011600042EA012109B2444A5180027CC17B42EA31
:10117000012109B2404A9180417C917175E03F495B
:10118000098809B23D4A1181017BC27A41EA0221F4
:101190003A4A1180827B417B42EA012109B2374AF7
:1011A0009180027CC17B42EA012109B2334A51801D
:1011B000417C03E004E004E004E055E0917154E078
:1011C00000BF00BF00BF0178491E2D4A11701146B3
:1011D000097801EB81012B4A32F8111009B2284A33
:1011E000127802EB8202274B03EB42021181017B52
:1011F000C27A41EA0221224A127802EB820223F8E3
:101200001210827B417B42EA012109B21C4A12780A
:1012100002EB820203EB42025180027CC17B42EA74
:10122000012109B2164A127802EB820203EB420254
:101230009180417C124A127802EB820203EB420257
:10124000917112E0C17A104A1170017B5170417B9B
:101250009170817BD170C17B1171017C5171417C96
:101260009171817CD17100E000BF00BF7047000028
:10127000040300200E030020220300201803002096
:10128000400000202C0300203800002002460020EF
:1012900002EA01030BB1012000E0002070470000CA
:1012A00010B50649064800F00FF928B10349044873
:1012B00000F008F802F07EFC10BD000000080020DD
:1012C000886402400246094B9A4201D2084801E074
:1012D0000648103801F000531BB1064B0B40C360A9
:1012E00002E0044B0B408360704700001064024032
:1012F000006002407D0F7D0F21B1026842F00102C3
:10130000026003E0026822F0010202607047000000
:10131000016821F0010101600021016041608160EC
:10132000C1600161212141614A49884204D13D21C6
:10133000484A103A91608CE046491831884205D1FC
:101340004FF47461434A103A916082E04149303170
:10135000884205D14FF474113E4A103A916078E00A
:101360003C494831884205D14FF07461394A103AFE
:1013700091606EE037496031884204D13649354A80
:10138000103AD16065E033497831884204D133495D
:10139000304A103AD1605CE02E499031884204D145
:1013A0002F492C4A103AD16053E02A49A83188428B
:1013B00005D14FF03D51274A103AD16049E0294903
:1013C000884204D13D21274A083A116041E025496D
:1013D0001831884205D14FF47461224A083A1160ED
:1013E00037E020493031884205D14FF474111D4A4D
:1013F000083A11602DE01B494831884205D14FF071
:101400007461184A083A116023E016496031884235
:1014100004D11149134A121F11601AE011497831A1
:10142000884204D10D490F4A121F116011E00D4985
:101430009031884204D10A490A4A121F116008E01B
:101440000849A831884204D14FF03D51054A121F86
:1014500011607047106002403D000020400F0020E6
:1014600000003D201064024021B1026842F4802255
:10147000026003E0026822F480220260704722B119
:10148000036843F40023036003E0036823F40023AC
:10149000036001617047014600200A6802F0010202
:1014A0000AB1012000E0002070470146486880B280
:1014B0007047014600200A6802F400220AB10120A8
:1014C00000E000207047000030B503460A460020C7
:1014D00000240B4DAB4201D20A4901E00849103902
:1014E00002F000550DB14C6800E00C68064D2C4030
:1014F00004EA02050DB1012000E0002030BD00002B
:1015000010640240006002407D0F7D0F10B5002284
:101510000268134B1A40CC680B6823434C69234381
:101520008C692343CC6923430C6A23434C6A2343CD
:101530008C6A23434C6B23438C6B23431A43026016
:10154000426922F00702D1E90B3423431A43426176
:101550000B6943604B6883608B68C36010BD0000FB
:101560003F801CF0416070477047000010B5044692
:1015700004EBC400454901EB8000006804EBC401A2
:10158000424A02EB810148604148006804EBC40113
:1015900002EB8101086004EBC400114601EB8000FE
:1015A000C07CC0F38010B0B104EBC40001EB80003C
:1015B000C07C20F0400004EBC40102EB8101C87440
:1015C00004EBC400114601EB8000006804EBC40189
:1015D00002EB8101C86004EBC4002C4901EB8000E0
:1015E000806990B304EBC401284A02EB8101886949
:1015F000804758B304EBC400244901EB8000C07C51
:1016000020F02000203004EBC401204A02EB8101CD
:10161000C87404EBC400114601EB8000C07C20F0CC
:101620008000803004EBC40102EB8101C87404EB3C
:10163000C400114601EB8000006A28B304EBC4012A
:1016400002EB8101086A80471EE00FE0FFE704EB30
:10165000C4000E4901EB8000C07C20F0800004EB48
:10166000C4010A4A02EB8101C8740DE004EBC40016
:10167000064901EB8000C07C20F0800004EBC4012F
:10168000024A02EB8101C87410BD0000C8050020A9
:101690003000002010B5012000F028F820B1012012
:1016A00000F01EF802F09AFB10BD10B5022000F009
:1016B0001DF820B1022000F013F802F095FB10BDD8
:1016C00010B54FF4807000F011F840B14FF4807005
:1016D00000F006F802F076FA172000F03DFE10BD8B
:1016E0000149086070470000143C01400146002099
:1016F000034A12680A400AB1012000E00020704746
:10170000143C0140002123498279002A3AD00A463C
:10171000126803689A430B461A600A1D1268036830
:101720009A430B1D1A60027911440A6803681A4330
:101730000A60184A0832126803689A43154B083346
:101740001A601A1D126803689A43124B0C331A6010
:101750004279102A0ED11A1F126803681A430D4BE2
:1017600008331A601A1D126803681A43094B0C33B8
:101770001A600DE00749427911440A6803681A4368
:101780000A6005E0027911440A6803689A430A6016
:1017900070470000003C014000B58BB001210820DB
:1017A00000F0FAFB0121802000F0E6FB02220A2172
:1017B0003B4800F045F94FF48060099002208DF815
:1017C000280003208DF8290000208DF82A00012030
:1017D0008DF82B0009A9324800F0EAF85920ADF83D
:1017E00018000020ADF81A0044F61F600790002092
:1017F000ADF8200006A92B4801F0E0F86020ADF814
:1018000004000120ADF806000020ADF8100001A989
:10181000244800F085FF0821224800F0BFFF012185
:10182000204800F041FF01211E4800F04CFF022239
:101830000B211B4800F004F94FF4006009900220CE
:101840008DF8280003208DF8290000208DF82A004B
:1018500001208DF82B0009A9114800F0A9F860209B
:10186000ADF804000120ADF806000020ADF810002E
:1018700001A90C4800F09CFF08210A4800F0EAFF8B
:101880000121084800F010FF0121064800F01BFF6D
:101890004FF4BE61034801F08EF80BB000BD0000AC
:1018A000001C0240000C004000B585B00121202042
:1018B00000F062FB0121880300F08EFB002105206F
:1018C00000F084FD0120009000208DF8040001202C
:1018D0008DF8060000208DF8070003208DF8050024
:1018E0006946114800F064F80120029000208DF84C
:1018F0000C000C208DF80D0001208DF80E0002A8C0
:10190000FFF700FF06208DF8100005208DF811006C
:1019100000208DF8120001208DF8130004A800F0BB
:10192000BDF905B000BD00000014024000B585B04F
:101930000121202000F020FB0121880300F04CFB56
:101940000121052000F042FD0220009000208DF8CA
:10195000040001208DF8060000208DF80700032008
:101960008DF805006946114800F022F80220029027
:1019700000208DF80C000C208DF80D0001208DF852
:101980000E0002A8FFF7BEFE07208DF8100005200C
:101990008DF8110000208DF8120001208DF8130041
:1019A00004A800F07BF905B000BD0000001402405F
:1019B000F0B50A4600210023002400BF3DE00125C8
:1019C00005FA01F3156805EA03049C4234D1056861
:1019D0004F000326BE40B543056015794E00B54063
:1019E0000668354305601579012D02D01579022D61
:1019F00016D185684F000326BE40B54385605579F2
:101A00004E00B540866835438560456801268E40A6
:101A1000B5434560456896798E40B6B2354345601A
:101A2000C5684F000326BE40B543C560D5794E005A
:101A3000B540C6683543C560491C1029BFD3F0BD09
:101A4000F0B5002300244D07ED0E02FA05F3CE1089
:101A500000F1200555F826504E07F70E0F26BE4020
:101A6000B543CF1000F1200646F82750CE1000F104
:101A7000200555F8265045EA0304CE1000F1200554
:101A800045F82640F0BD41837047018370474269A5
:101A90004A4042617047000000BF0E4A11684FF093
:101AA000E02252694FF0E0239B69D21A4FF47A7317
:101AB0005A434FF0E0235B69B2FBF3F201EB4103C1
:101AC000C3EBC11302EBC300024A12689142E4D196
:101AD000704700003000002000BFFEE7FF202949CA
:101AE00081F84E0064212748A0F850100121A0F889
:101AF0005210FF20234981F8800164212148A0F879
:101B000082110021A0F88411FF201E4981F82001D4
:101B100000211C48A0F82211A0F82411FF20194927
:101B200081F8320100211748A0F83411A0F83611CD
:101B3000FF20144981F8380100211248A0F83A1119
:101B4000A0F83C11FF200F4981F8860100210D48C3
:101B5000A0F88811A0F88A11FF200A4981F84005F1
:101B600000210848A0F84215A0F84415FF200549B7
:101B700081F84C0500210348A0F84E15A0F8501537
:101B800070470000C814002010B588B00446012139
:101B9000102000F0F1F90121C80700F0FDF908223A
:101BA00000212448FFF74CFF082201212148FFF7BC
:101BB00047FF0320069002208DF81C008DF81D00C1
:101BC00000208DF81E0001208DF81F0006A919487D
:101BD000FFF7EEFE02940020ADF80C00ADF80E0009
:101BE000ADF81000ADF814000C20ADF8120002A9F9
:101BF000114801F0E1F901210F4801F0F3F840210B
:101C00000D4801F0D7F8012240F225510A4801F0B1
:101C1000AEF953208DF8040001208DF80500002056
:101C20008DF8060001208DF8070001A800F036F8B5
:101C300008B010BD00100240007C004010B50F48F5
:101C400040680E490860FFF727FF0C4948600C49BF
:101C5000C8600A48406809490968401A074988600D
:101C600002F02CF8FFF718FF0549086108460069E3
:101C7000C968401A0249486110BD0000600B00208D
:101C80006C0B0020704770477047704710B501F02B
:101C900073FC10BD704700BFFEE7704770B50021B0
:101CA00000230F22C4781CB3174C246804F4E064AA
:101CB000C4F5E064C4F30721C1F10404E3B20A41AE
:101CC00044789C40E1B28478144021430C07210EF3
:101CD0000E4C05786155047804F01F050124AC40D2
:101CE00005786D11AD0005F1E025C5F8004109E06A
:101CF000047804F01F050124AC40054D06787611E8
:101D000045F8264070BD00000CED00E000E400E066
:101D100080E100E002490143024A1160704700007F
:101D20000000FA050CED00E0B0EE401A10B99FED8E
:101D3000790A704790ED100A80ED110A90ED0F0AB4
:101D400080ED100AC0ED060A80ED071A30EEC10AD8
:101D500080ED0F0A0178002975D190ED010AD0EDD0
:101D60000F1A20EE210A80ED090A90ED0A0AD0ED43
:101D7000021A90ED0F2A01EE820A80ED0A0A90ED18
:101D80000D0A80ED0E0A90ED0C0A80ED0D0A90ED23
:101D90000F0AD0ED101A30EE610A80ED0C0A90EDBA
:101DA000030AD0ED0C1A20EE210A80ED0B0A90ED0B
:101DB0000A0AD0ED051AB4EEE10AF1EE10FA04DDDC
:101DC00090ED050A80ED0A0A10E090ED0A0AD0EDC8
:101DD000051AF1EE611AB4EEE10AF1EE10FA05D23D
:101DE00090ED050AB1EE400A80ED0A0A90ED090A6D
:101DF000D0ED0A1A30EE210AD0ED0B1A30EE210A8E
:101E000080ED080A90ED080AD0ED041AB4EEE10A5C
:101E1000F1EE10FA04DD90ED040A80ED080A76E098
:101E200090ED080AD0ED041AF1EE611AB4EEE10A61
:101E3000F1EE10FA6BD290ED040AB1EE400A80ED9B
:101E4000080A64E0FFE70178012960D190ED0F0AEC
:101E5000D0ED101A30EE610AD0ED011A20EE210A01
:101E600080ED090A90ED020AD0ED0F1A20EE210A4A
:101E700080ED0A0A90ED0D0A80ED0E0A90ED0C0A35
:101E800080ED0D0A90ED0F0AD0ED101AB0EE002A89
:101E900002EE610AD0ED111A30EE210A80ED0C0A33
:101EA00090ED030AD0ED0C1A20EE210A80ED0B0A0A
:101EB00090ED090AD0ED0A1A30EE210AD0ED0B1A86
:101EC00030EE210AD0ED081A30EE210A80ED080A22
:101ED00090ED080AD0ED041AB4EEE10AF1EE10FA22
:101EE00004DD90ED040A80ED080A10E090ED080A88
:101EF000D0ED041AF1EE611AB4EEE10AF1EE10FA37
:101F000005D290ED040AB1EE400A80ED080A90ED8A
:101F1000080A0EE70000000000B102B97047017026
:101F200092ED001A80ED011A92ED011A80ED021A6D
:101F300092ED021A80ED031A80ED040AC0ED050A45
:101F40009FED0C1A80ED0E1A80ED0D1A80ED0C1A23
:101F50009FED081A80ED081A80ED0B1A80ED0A1A21
:101F600080ED091A80ED111A80ED101A80ED0F1A1C
:101F700000BFD3E70000000029B1064A12680243FF
:101F8000044B1A6004E0034A12688243014B1A6052
:101F9000704700003038024029B1064A12680243F7
:101FA000044B1A6004E0034A12688243014B1A6032
:101FB000704700004038024029B1064A12680243C7
:101FC000044B1A6004E0034A12688243014B1A6012
:101FD000704700002038024029B1064A12680243C7
:101FE000044B1A6004E0034A12688243014B1A60F2
:101FF000704700004438024029B1064A1268024383
:10200000044B1A6004E0034A12688243014B1A60D1
:102010007047000024380240F0B50021002200245F
:10202000022500260223324F3F6807F00C0121B140
:10203000042905D0082937D105E02E4F076036E086
:102040002D4F076033E02A4F3F1F3F68C7F380568C
:10205000274F3F1F3F6807F03F036EB1264FB7FB86
:10206000F3F7DFF88CC0ACF1040CDCF800C0CCF363
:10207000881C07FB0CF40CE01E4FB7FBF3F7DFF8EE
:1020800070C0ACF1040CDCF800C0CCF3881C07FB7A
:102090000CF4174F3F1F3F68C7F301477F1C7D00BB
:1020A000B4FBF5F7076002E0124F076000BF00BF06
:1020B0000F4F3F6807F0F0010909104F7A5C07687D
:1020C000D74047600A4F3F6807F4E051890A0B4F39
:1020D0007A5C4768D7408760054F3F6807F46041E6
:1020E000490B064F7A5C4768D740C760F0BD0000D7
:1020F000083802400024F400001BB7001400002040
:1021000070B590B004460E46154601214A48FFF7C7
:1021100033FF01211020FFF75FFF01211020FFF79F
:102120006BFF00211020FFF767FF0722114643488D
:10213000FFF786FC80200E9002208DF83C000020E6
:102140008DF83E0003208DF83D0000208DF83F0003
:102150000EA93A48FFF72CFC394800F059FE3948DF
:102160000A900020ADF82C00ADF82E004FF48060EE
:10217000ADF830000420ADF832000020ADF8340096
:102180000AA92F4800F018FF012240212C4800F036
:1021900035FE10212A4800F00DFE012240F22441B4
:1021A000274800F0E4FE0121254800F01BFE252011
:1021B0008DF83C0004208DF83D0000208DF83E0095
:1021C00001208DF83F000FA8FFF768FD1E48FFF7BC
:1021D0009FF84FF0006001901948001D0290039491
:1021E00000200490059506904FF480600790002031
:1021F000089009904FF480700A904FF440300B9093
:1022000000200C900D900E900F9001A90E48FFF742
:102210007DF9002231460C48FFF731F901210A48C7
:10222000FFF722F900210848FFF766F80121064868
:10223000FFF762F810B070BD0200400000040240D9
:1022400000100140A08601004064024010B501F07A
:10225000A3FB4FF480620649064801F049FA4FF4A7
:1022600000720549A1F5007000F08AFC10BD000065
:102270009C0F0020840F0020840D002000B101B9C4
:1022800070470278437842EA0322C2F30A020A80C6
:102290004278D210837842EA4312C2F30A024A809B
:1022A00082789211C37842EA8302037942EA832258
:1022B000C2F30A028A8002795210437942EAC312B9
:1022C000C2F30A02CA804279C2F301128A724279C9
:1022D00012119308CB728279C37942EA032212B2B7
:1022E0008A81027A437A42EA032213B201F10C0294
:1022F000CB81827AC37A42EA032213B201F10C0243
:102300000B82037B8B74437BCB74827BC37B42EA5F
:1023100003228A82027C437C42EA032212B20A81AF
:102320000A88A2F5806212B20A804A88A2F5806209
:1023300012B24A808A88A2F5806212B28A80CA8864
:10234000A2F5806212B2CA800A89A2F5806212B236
:102350000A8100BF94E7000010B504460021184828
:10236000FEF7CAFF002116481830FEF7C5FF00BF70
:102370001348FFF790F80028FAD100BF1048183032
:10238000FFF789F80028F9D10E490D481830FEF7FB
:1023900099FF0D490A48FEF795FF21460848FFF7C7
:1023A000E1F8214606481830FFF7DCF8012104481F
:1023B0001830FEF7A1FF01210148FEF79DFF10BD77
:1023C00070640240000C00203000002030B5002274
:1023D0008B071C0F0F2303FA04F20B4B8C1053F8DE
:1023E00024309343084C8D1044F8253023468C103C
:1023F00053F824308C07240F00FA04F42343024CD2
:102400008D1044F8253030BD0838014070B50024E7
:1024100000BF1EE000F0EEF8054604EB44000E4954
:1024200001EB80008068281A04EB44010A4A02EBA1
:102430008101C98888420AD304EB4400114601EBAC
:102440008000856004EB440152F821008047601C45
:10245000C4B2072CDED370BD64000020002000BF92
:102460001FE000EB4001104A02EB810189884FF424
:102470007A7292FBF1F100EB40020B4B03EB82020C
:10248000D18000EB40011A4602EB8101C988012985
:1024900005DA012100EB400203EB8202D180411CEE
:1024A000C8B20728DDD37047640000200CB50020B7
:1024B000019000904148006840F480303F49086036
:1024C00000BF3E48006800F4003000900198401CB6
:1024D0000190009818B90198B0F5A04FF1D1374894
:1024E000006800F4003010B10120009001E00020ED
:1024F00000900098012860D130484030006840F0DA
:1025000080502E49403108602D48006840F440401A
:102510002B490860294808300068284908310860BC
:102520000846006840F4004008600846006840F42F
:10253000A05008602348091F0860081F006840F089
:102540008070091F086000BF1C48006800F0007020
:102550000028F9D01A48006840F480301849086013
:1025600000BF1748406800F480300028F9D01448B4
:10257000006840F400301249086000BF104840680D
:1025800000F400300028F9D040F205700E490860D0
:102590000A480830006820F0030008490831086044
:1025A0000846006840F00200086000BF0348083099
:1025B000006800F00C000828F8D10CBD003802407B
:1025C00000700040062D4008003C0240042808D15D
:1025D0004FF0E021096941F004014FF0E022116160
:1025E00007E04FF0E021096921F004014FF0E022FB
:1025F0001161704701480068704700002C000020FE
:1026000010B505480068401C0349086001F0DEFB76
:1026100001F0DCF810BD00003000002010B51548B6
:10262000006840F47000134908601348006840F0E7
:1026300001001149086000200F49083108600E4868
:1026400000680E4908400C4908600D48091D0860E3
:10265000081F006820F48020091F08600020064938
:102660000C310860FFF722FF4FF00060014980390C
:10267000086010BD88ED00E000380240FFFFF6FE64
:102680001030002410B50121064800F037F838B1A9
:102690000121044800F014F80021024800F013F86A
:1026A00010BD00000010004021B1028842F08002FD
:1026B000028004E002884FF67F731A400280704760
:1026C000CA430282704721B1028842F001020280AF
:1026D00004E002884FF6FE731A400280704731B161
:1026E000B0F8442042F40042A0F8442005E0B0F8DD
:1026F0004420C2F30E02A0F84420704730B50246D1
:10270000002000230024158A05EA0103958905EAC3
:10271000010413B10CB1012000E0002030BD000025
:1027200070B5002400220023058C4FF6FE7635405C
:102730000584028C8388048B4FF68F752C40B51E60
:102740002C400D882C43751E2A408D892A434D88C4
:102750002A43104DA84202D00F4DA84213D14FF684
:10276000F7752A40CD892A434FF6FB752A408D889C
:102770002A434FF6FF652B404FF6FF552B400D8A3D
:102780002B434D8A2B43838004838D6845630284E9
:1027900070BD000000000140000401400A46002115
:1027A000018B4FF6F7731940114301837047000006
:1027B00070B5002400220023058C4FF6EF763540DB
:1027C0000584028C8388048B48F6FF752C404FF6F5
:1027D000FF452C400D884FF6FF7606EA05252C4371
:1027E0004FF6DF752A408D8906EA05152A434D8884
:1027F00006EA05152A43154DA84202D0144DA842F9
:102800001DD14FF67F752A40CD894FF6FF7606EA37
:1028100005152A434FF6BF752A408D8806EA05152F
:102820002A434FF6FF352B404FF2FF752B400D8AA0
:1028300006EA85052B434D8A06EA85052B438380EE
:1028400004838D688563028470BD00000000014030
:10285000000401400A460021018B4FF2FF7319402A
:102860004FF6FF7303EA0223194301837047000008
:1028700070B5002400220023058C4FF6FF6635401A
:102880000584028C8388848B4FF68F752C404FF61D
:10289000FC752C400D882C434FF6FF552A408D893E
:1028A0004FF6FF7606EA05252A434D8806EA0525F8
:1028B0002A43154DA84202D0144DA8421DD14FF213
:1028C000FF752A40CD894FF6FF7606EA05252A4393
:1028D0004FF6FF352A408D8806EA05252A434EF635
:1028E000FF752B404DF6FF752B400D8A06EA051546
:1028F0002B434D8A06EA05152B43838084838D681C
:10290000C563028470BD0000000001400004014066
:102910000A460021818B4FF6F773194011438183DA
:102920007047000070B5002200230024058C4EF68D
:10293000FF7635400584038C8488828B48F6FF75CA
:102940002A404FF6FF452A400D884FF6FF7606EAEB
:1029500005252A434DF6FF752B408D8906EA05357E
:102960002B434D8806EA05352B430A4DA84202D079
:10297000094DA84208D14BF6FF752C400D8A4FF641
:10298000FF7606EA85152C43848082838D68056472
:10299000038470BD00000140000401400A4600218C
:1029A000818B4FF2FF7319404FF6FF7303EA022346
:1029B00019438183704741637047000000220288F9
:1029C000184B98420ED0184B98420BD0B0F1804F64
:1029D00008D0164B984205D0154B984202D0154BA3
:1029E000984204D14FF68F731A404B881A43124B0A
:1029F000984207D0114B984204D04FF6FF431A403B
:102A00000B891A4302804B68C3620B880385054B10
:102A1000984202D0044B984201D18B7A038601235D
:102A20008382704700000140000401400004004020
:102A300000080040000C004000100040001400405E
:102A400010B500F02DFB10BD10B50F48008800F048
:102A5000080010B10D488088C4B240F225510A48E0
:102A600000F05BFA78B140F22551074800F0ABF96D
:102A70000548001D0088C4B22046FDF7B9FD214677
:102A8000014800F04FFB10BD007C004000500040AA
:102A900010B540F22551344800F03FFA18B13248E1
:102AA00000F0F4FA5FE040F224412F4800F035FADC
:102AB000002858D02C4800F0E9FA2C48FEF7F9FC21
:102AC00040BB00212948FEF717FC2848FEF7EDFC23
:102AD000C0F124002649088024212448FEF742FD45
:102AE0002248006840F400202049086021491F481E
:102AF000FEF7E8FB01211D48FEF7FEFB1C4800889D
:102B0000122830D11C491D48FFF7B8FB0020FEF702
:102B10002DFD28E000211548FEF7EEFB1348FEF7D7
:102B2000C4FCC0F124001249088024210F48FEF79C
:102B300019FD0E48006820F400200C4908600D497A
:102B40000A48FEF7BFFB01210848FEF7D5FB0848FD
:102B50000088122807D1084908482430FFF78EFB67
:102B60000020FEF703FD10BD00100140406402404C
:102B70006000002000003010000B0020160B002029
:102B800070B596B004460D46164601214FF0401030
:102B9000FFF7F2F901212020FFF71EFA0121202082
:102BA000FFF72AFA00212020FFF726FA0822092140
:102BB0004448FEF745FF08220E214248FEF740FF39
:102BC0004FF48440149002208DF8540003208DF8B7
:102BD000550000208DF8560001208DF8570014A9EB
:102BE0003848FEF7E5FE4FF4E13010900020ADF8D4
:102BF0004400ADF84600ADF848000C20ADF84A009E
:102C00000020ADF84C0010A92F4800F0D5F90122A2
:102C100040212D4800F0F2F810212B4800F0CAF8AE
:102C2000012240F22441284800F0A1F90121264860
:102C300000F0D8F847208DF83C0002208DF83D00C8
:102C400000208DF83E0001208DF83F000FA8FFF70F
:102C500025F81E48FEF75CFB4FF0206000901A48F4
:102C6000001D01900294002003904FF40070049026
:102C7000002005904FF48060069000200790089097
:102C80004FF4807009904FF440300A9000200B9070
:102C90000C900D900E9069460C48FEF737FC002210
:102CA00029460A48FEF7EBFB01210848FEF7DCFB4A
:102CB00000210648FEF720FB01210448FEF71CFB1B
:102CC00016B070BD00180240001401402864024094
:102CD00010B540F22551304800F01FF918B12E48C8
:102CE00000F0D4F956E040F224412B4800F015F9E9
:102CF00000284FD0284800F0C9F92848FEF7D9FB32
:102D000020BB00212548FEF7F7FA2448FEF7CDFB4B
:102D1000C0F50070224908804FF400711F48FEF78B
:102D200021FC1E48006840F400201C4908601D4931
:102D30001A48FEF7C7FA01211848FEF7DDFA1848CD
:102D400002881949194800F0DEFC23E000211348ED
:102D5000FEF7D2FA1148FEF7A8FBC0F50070104943
:102D600008804FF400710D48FEF7FCFB0B4800682B
:102D700020F40020094908600A490848FEF7A2FA31
:102D800001210648FEF7B8FA0548028808490748B5
:102D900000F0B9FC10BD000000140140286402409E
:102DA000EA00002000003010840B0020840F002077
:102DB000840D002001F40072B2F5007F00D100BF45
:102DC000CA430280704710B50022002340F66A14FF
:102DD000A14200D100BF0A1201249440A3B2DC43F7
:102DE000048010BD21B1828942F40052828104E046
:102DF00082894DF6FF731A40828170471AB1838A27
:102E00000B43838202E0838A8B43838270470000F6
:102E100010B504463248844208D101211020FFF742
:102E2000EBF800211020FFF7E7F857E02D48844227
:102E300009D101214804FFF7BFF800214FF4003009
:102E4000FFF7BAF84AE02848844209D101218804F2
:102E5000FFF7B2F800214FF48020FFF7ADF83DE016
:102E60002248844209D10121C804FFF7A5F80021B6
:102E70004FF40020FFF7A0F830E01D48844209D14C
:102E800001210805FFF798F800214FF48010FFF7A3
:102E900093F823E01748844208D101212020FFF74E
:102EA000ABF800212020FFF7A7F817E01248844272
:102EB00009D101218807FFF77FF800214FF08040FA
:102EC000FFF77AF80AE00D48844207D10121400556
:102ED000FFF772F800216005FFF76EF810BD0000E3
:102EE000001001400044004000480040004C0040F9
:102EF000005000400014014000780040007C004079
:102F000002460020B1F5007F00D100BF13880B40BE
:102F10000BB1012000E00020704770B5024600248C
:102F200000230025002040F66A16B14200D100BF00
:102F3000C1F3421501F01F03012606FA03F3012D28
:102F400002D19689334006E0022D02D1168A334021
:102F500001E0968A33400C12012606FA04F4168822
:102F6000344013B10CB1012000E0002070BDF0B579
:102F70000346002400260025002040F66A17B942C7
:102F800000D100BF1846C1F3421401F01F0601270B
:102F900007FA06F5012C01D10C3004E0022C01D116
:102FA000103000E014301AB107682F43076002E0C8
:102FB0000768AF430760F0BD2DE9FF4705460E46A1
:102FC0000024A14600BFA046B08900B100BF2C8AF2
:102FD00024F44054F08804432C82AC8941F20C6004
:102FE0008443B08831890843718908430443AC8124
:102FF000AC8A24F44074B0890443AC826846FFF77D
:103000000BF82048854202D01F48854202D1DDF8E6
:103010000C9001E0DDF80890A88900F4004040B170
:1030200009EBC90000EB091031684900B0FBF1F76A
:1030300007E009EBC90000EB091031688900B0FB1B
:10304000F1F76420B7FBF0F004012009642101FBD3
:103050001078A88900F4004040B1322000EBC8008D
:10306000B0FBF1F000F00700044308E0322000EB71
:1030700008106421B0FBF1F000F00F0004432C8134
:10308000BDE8FF8700100140001401400146888818
:10309000C0F308007047C1F3080282807047000047
:1030A00010B51B48008800F0080010B11848FFF761
:1030B000EDFF40F225511648FFF72FFF40B140F2D7
:1030C00025511348FFF77FFE1148001D0088C4B248
:1030D00040F227710E48FFF720FFC0B10D4801787C
:1030E0000078401C0B4A10700B48405C0849091DD1
:1030F00008801046007809490978884207D10448B9
:103100000C30008820F0800001490C31088010BD8F
:103110000078004036000020040100203700002025
:1031200000BFFEE770B504460D4629462046FFF76E
:10313000B2FF00BF80212046FFF7E2FE0028F9D051
:1031400070BDEFF31080704780F310887047000067
:1031500030B58BB005460C4601214020FEF71CFF20
:1031600001218020FEF708FF01214020FEF724FF07
:1031700000214020FEF720FF092206212048FEF70B
:103180005FFC4020099002208DF8280003208DF874
:10319000290000208DF82A0002208DF82B0009A9B3
:1031A0001748FEF705FC6020ADF804000120ADF8DB
:1031B00006000020ADF8100001A91248FFF7B0FA90
:1031C00008211048FFF7EAFA01210E48FFF76CFAD0
:1031D000681E0790601E80B2ADF818000020ADF8A0
:1031E0001A00ADF8200006A90648FFF7E7FB012109
:1031F0000448FFF768FA00F007F80BB030BD000094
:10320000001C02400018004010B500210148FFF7E3
:10321000D2FB10BD0018004070B504460D460448AE
:103220000480294602482838FFF7C5FB70BD00001E
:103230002818004010B5024800F01AF910BD00002F
:103240009003002070B505460024B0EE080A85ED15
:10325000080AB8EE080A85ED0D0A00BF1DE004EB70
:10326000840205F1140101EB820191ED031AF0EEE5
:10327000410A04EB840205F1140101EB820191ED96
:10328000021AB0EE410A04EBC40205F1640101EB3D
:10329000C200FEF749FD601CC4B2042CDFDB002431
:1032A00015E004EBC40105F1640000EBC10090EDF2
:1032B000080ABDEEC00A10EE100A01B204EB840247
:1032C00005F1140000EB82000182601CC4B2042CE2
:1032D000E7DB70BD70B5044604B970BD002500BFC2
:1032E0002DE005EB850104F1140050F82100B0F940
:1032F000020000EE100AB8EEC00ADFED570A20EE19
:10330000200A05EB850104F1140000EB810080ED3B
:10331000020A05EBC50104F1640000EBC10090ED69
:103320000C0ADFED4E0A20EE200A05EB850104F1C0
:10333000140000EB810080ED010A681CC5B2042D69
:10334000CFDB94ED070AB1EE400AD4ED0C0A30EE63
:10335000200AD4ED110A30EE200AD4ED160A30EE20
:10336000600AF5EE000A20EE200A84ED7B0A94ED57
:10337000070AB1EE400AD4ED0C0A30EE600AD4ED33
:10338000110A30EE200AD4ED160A30EE200AF5EECE
:10339000000A20EE200A84ED7C0A94ED070AB1EEC3
:1033A000400AD4ED0C0A30EE600AD4ED110A30EE7A
:1033B000600AD4ED160A30EE600AF5EE000A20EE3F
:1033C000200ADFED270A80EE201A84ED7D1AE068DE
:1033D000D0ED000A606890ED2E1A70EEC10AB0EED2
:1033E000600A9FED201ADFED200A00F0A7FB84EDB4
:1033F000880AE068D0ED010AA06890ED2E1A70EE00
:10340000C10AB0EE600A9FED171ADFED170A00F04F
:1034100095FB84ED890AE06890ED020A84ED8A0A42
:10342000D4F82C02017840F233200155D4F82C0254
:10343000417840F232200155D4F82C02807800EE19
:10344000100AB8EE400ADFED090A80EE201A84ED7A
:103450008D1A00BF41E700000A01DA390000FA4383
:10346000CDCC4C3EDB0F4940DB0F49C00000C842C9
:1034700070B5044604B970BD0320207400F080FAD2
:10348000206000F069FAE06000F082FA606000F00D
:103490006FFAA060002517E0284600F051FA05EB0E
:1034A000850204F1140141F8220005EBC5025031F8
:1034B00001EBC200DFED250A9FED250A254A002118
:1034C000FEF72AFD681CC5B2042DE5DBDFED220AFC
:1034D000B1EE080A214A002104F5C270FEF71CFD76
:1034E0001F499FED200A04F5E67000F05DF91E49C2
:1034F0009FED1C0A04F5EE7000F056F9B0EE080AD4
:1035000084ED840AB8EE080A84ED850A9FED170A57
:1035100084ED860A9FED160A84ED870A00F024FAEE
:10352000C4F82C0200214FF40C700155801C015589
:10353000401E0155801C01559FED0E0A84ED8D0A39
:103540002046FFF7C7FE00BF95E700000000FA44E1
:1035500000007A46003E0008CDCC4C3E0C3E0008F0
:10356000183E00086F12033B1C3E00089A99394030
:103570009A9939C00000000010B51948FFF7AAFE5B
:103580001748FFF75FFE16480068807A03280AD1C3
:10359000134CB4F96030B4F94C20B4F93810B4F9D4
:1035A0002400FDF71FFA0E480068807A022806D131
:1035B00000231A4619461846FDF714FA0FE008488A
:1035C0000068807A01280AD1054CB4F96030B4F95A
:1035D0004C20B4F93810B4F92400FDF703FA10BDFB
:1035E0009003002070B504460025681FFEF7EEFF2B
:1035F000134800681349B0FBF1F0134908701048F4
:1036000000684FF4FA51B0FBF1F0104908600CB9B2
:103610004FF47A740A480068B0FBF4F0C5086D1ED8
:103620004FF0E020006940F002004FF0E021086117
:1036300008464561006940F00100086170BD000066
:103640000000002000127A00240000202800002042
:1036500070B50346002400210020002200254FF011
:10366000E02675690D4E366803FB06F44FF0E02640
:10367000B16910E04FF0E026B06988420BD0884273
:1036800002D20E1A324402E02E1A0E44324401468F
:10369000A24200D300E0EDE700BF70BD280000208B
:1036A00070B50346002400210020002200254FF0C1
:1036B000E02675690D4E367803FB06F44FF0E026E0
:1036C000B16910E04FF0E026B06988420BD0884223
:1036D00002D20E1A324402E02E1A0E44324401463F
:1036E000A24200D300E0EDE700BF70BD240000203F
:1036F000034619608818401E58609A600020D86000
:103700001961596170472DE9F0470446884615460E
:10371000FFF717FD824672B6B8F1000F00D13CE00A
:10372000A06800B939E061686069884201D9206801
:103730006061A068A84201DD284600E0A068054657
:1037400061696068401A461CAE4209DB2E4632466B
:1037500041466069FCF7A0FD6069304460610FE09C
:10376000A5EB0609324641466069FCF795FD08EB7A
:1037700006014A462068FCF78FFD206848446061D6
:10378000A068401BA060E0682844E0602F465046D7
:10379000FFF7DAFC3846BDE8F0875046FFF7D4FC67
:1037A0004FF0FF30F7E7000010EE102AC2600A6801
:1037B0008260DFED050A10EE902A0260DFED020A5A
:1037C00010EE902A426070470000000010B50E48CD
:1037D0000078401C0C49087008460078322811D146
:1037E0000A48007800F020F808480078401C074993
:1037F000087008460078082801D1002008700020D1
:103800000149087010BD0000340000203500002080
:1038100010B504464FF4807040FA04F10148FEF7F9
:1038200034F910BD0018024010B504464FF4807002
:1038300040FA04F10148FEF72AF910BD00180240D1
:1038400000B58BB001210220FEF7C6FB0121080262
:10385000FEF792FB032207213748FEF7F1F880209C
:10386000099002208DF8280003208DF829000020FF
:103870008DF82A0001208DF82B0009A92E48FEF7AB
:1038800097F8032202212C48FEF7DAF80420099069
:1038900002208DF8280003208DF8290000208DF8E3
:1038A0002A0001208DF82B0009A92348FEF780F893
:1038B00040F2CF700790B320ADF818000020ADF8AB
:1038C0001A00ADF8200006A91C48FFF777F8602021
:1038D000ADF804000120ADF806000020ADF810009E
:1038E000ADF808000820ADF812004001ADF8140052
:1038F0000020ADF816004FF47A70039001A90F482C
:10390000FEF7B6FF08210D48FFF702F801A90B48A2
:10391000FFF708F808210948FFF740F80121074898
:10392000FEF7C2FE01210548FEF7D9FE012103483A
:10393000FEF7C9FE0BB000BD0020024000040140AC
:10394000014601F0030000EB8000024A02EB400058
:10395000704700002C03002000487047440A0020F4
:1039600000487047220300200048704738000020BC
:1039700000487047F807002000487047C713002030
:1039800000487047000B002000487047B813002023
:10399000004870471807002010B51B48002101603F
:1039A00001711A480160017119480180817019483C
:1039B00001701C211848FCF708FD1848002101601F
:1039C00017480160174801808170174801800F2156
:1039D0001648FCF7FAFC0E211548FCF7D4FC102120
:1039E0001448FCF7D0FC14480021017013480180F2
:1039F0001348017013480160818013480170134817
:103A000001604160816010BDE0000020E500002001
:103A1000B8000020BB0000209C130020BC00002048
:103A2000C0000020C4000020C7000020B813002000
:103A3000C7130020D5130020C9000020CA000020B1
:103A4000CC000020CD000020D3000020E513002092
:103A50001CB501214020FEF78FFA4FF40050009072
:103A600001208DF8040000208DF8060003208DF859
:103A7000050001208DF8070069460348FDF798FF0F
:103A800000F004F81CBD00000018024010B54FF40F
:103A900000510248FDF7F9FF10BD00000018024078
:103AA0001CB501217020FEF767FA4FF480400090AA
:103AB00001208DF8040000208DF8060003208DF809
:103AC000050001208DF8070069460F48FDF770FFDB
:103AD0004FF40060009069460C48FDF769FF00F064
:103AE00019F800F021F84FF4FF700090694608487B
:103AF000FDF75EFF002404E02046FFF789FE601C0E
:103B0000C4B2082CF8DD1CBD0014024000100240B5
:103B10000018024010B54FF480410248FDF7B3FF92
:103B200010BD00000014024010B54FF400610248BF
:103B3000FDF7A9FF10BD000000100240B4EEE01A2E
:103B4000F1EE10FA00D27047B4EEC10AF1EE10FAAD
:103B50000EDD31EE602AF0EE421A03E030EE612A0B
:103B6000B0EE420AB4EEC10AF1EE10FAF6DC13E050
:103B7000B4EEE00AF1EE10FA0ED231EE602AF0EE69
:103B8000421A03E030EE212AB0EE420AB4EEE00A17
:103B9000F1EE10FAF6D300BF00BFD4E7FCF71CFE2D
:103BA0006420FFF755FDFEF759FC01E0FEF72EFCFF
:103BB000FCE7000010B540210148FDF766FF10BD8D
:103BC0000014024010B540210148FDF75CFF10BD14
:103BD000001402401CB501218020FEF7CDF93C20E5
:103BE000009001208DF8040000208DF806000320CD
:103BF0008DF8050001208DF8070069460648FDF79D
:103C0000D7FE002404E0204600F008F8601CC4B28F
:103C1000042CF8DB1CBD0000001C024010B504465B
:103C2000032C00DD10BD0420A04081B20248FDF746
:103C30002AFF00BFF6E70000001C024010B5044652
:103C4000032C00DD10BD0420A04081B20248FDF726
:103C50001CFF00BFF6E70000001C024010B5242244
:103C60000249A1F12400FEF74BFA10BD3A0B0020E7
:103C700010B50446FFF784FE2060FFF771FEE06296
:103C8000BAEE040A84ED0F0ADFED040A9FED040A80
:103C9000044A00210448FEF73FF910BD00401C45CE
:103CA00000409C45203E00086009002010B50248F5
:103CB000FFF7DEFF10BD0000F408002010B53B4800
:103CC00090ED000A3A4880ED000A3A4890ED000A6B
:103CD000364880ED000A384890ED000A3348D0EDB0
:103CE000000A20EE200A3448D0ED010A304890ED59
:103CF000001A01EE200A3148C06AB0F9020000EE55
:103D0000900AF8EEE00A9FED2E1A60EE810A2A482A
:103D100090ED021A00EE810A264880ED000A90ED2F
:103D2000000A264880ED0E0A90ED0F1AF0EE410AC7
:103D300090ED0E1AB0EE410A2248FDF7F5FF21483A
:103D400090ED080ABDEEC00A10EE100A01B21B4841
:103D5000A0F84810B0F848001B49088017480068D0
:103D6000807A032807D100230846B0F900201946BD
:103D70001846FCF769FE11480068807A022806D1CF
:103D800000231A4619461846FCF75EFE0CE00B4865
:103D90000068807A012807D100230B48B0F9002081
:103DA00019461846FCF750FE10BD000050000020D8
:103DB0004C000020540000202C3E0008F408002095
:103DC000F1A23E3B60090020480000200248006844
:103DD000401C0149086070472C0000200120014967
:103DE00008707047F50000200120014908707047F5
:103DF000F60000204FF00000E1EE100A70470000CE
:103E000000606A46000020410000000000002041E0
:103E1000000000000000003FABAA2A3EABAAAA3E69
:103E200000803B459A99993E0000000010E4DC3F79
:103E3000CB8541BF7FB5F73C00606A460000F0418A
:103E40000000000000409C46000020420000FA44B0
:103E5000703E00080000002004010000E801000896
:103E6000743F000804010020441F00000402000801
:103E70000095BA0A000000000000000001020304DF
:103E80000607080900000000010203040102030400
:103E90000607080900000000000000000000000004
:103EA0000000000000000000000000000000000012
:103EB0000000000000000000000000000000000002
:103EC00000000000000000000000000000000000F2
:103ED000000000003D1C0008E80300000000000096
:103EE0008D1C0008F401000000000000871C000881
:103EF000C800000000000000851C000864000000ED
:103F000000000000951C00083200000000000000C6
:103F1000891C000814000000000000008B1C000831
:103F2000020000000000000000000000000000008F
:103F30000000000000000000000000000000000081
:103F4000000000000000000000000000F11300204D
:103F50000000000000000000000000000000000061
:103F60000000000000000000000000000000000051
:043F7000000000004D
:04000005080001AD41
:00000001FF
